S01D00007370696472765F736C6176655F626172656D6574616C2E733337B9
S11300000010002089090000D14F0000D14F0000EA
S1130010D14F0000D14F0000D14F0000D14F00005C
S1130020D14F0000D14F0000D14F0000D14F00004C
S1130030D14F0000D14F0000D14F0000D14F00003C
S1130040D14F0000D14F0000D14F0000D14F00002C
S1130050D14F0000D14F0000D14F0000D14F00001C
S1130060D14F0000350F00000D100000D14F0000EB
S1130070D14F0000D14F0000D14F0000D14F0000FC
S1130080D14F0000D14F000029100000D14F0000D3
S1130090D14F0000D14F0000D14F0000D14F0000DC
S11300A0D14F0000D14F0000D14F0000D14F0000CC
S11300B0D14F0000D14F0000D14F0000B5360000F1
S11300C0D14F0000D14F0000D14F0000D14F0000AC
S11300D0D14F0000D14F0000D14F0000D14F00009C
S11300E0D14F0000D14F0000D14F0000D14F00008C
S11300F0D14F0000D14F0000D14F0000000000009C
S11301002DE9F04F93B0CDE90A329DED1C7BDDE97A
S11301101E530E9353EC172BCDE9080110461946D4
S11301208DED067B209E04F05BFA80B1DDE90601CB
S1130130C94B4FF0FF3204F07BFA40B9DDE9060108
S11301404FF0FF326FF4801304F054FA80B10E9B29
S11301502096CDE91E539DED067BDDE90A32DDE9EB
S113016008018DED1C7B13B0BDE8F04F00F08CB995
S1130170DDE906010022002304F03CFA002800F027
S11301803681DDE906A303F1004BCBF30A5016F4E4
S11301908063A0F2FF3008BF06250F9303F04EFFE3
S11301A09DA3D3E9002303F0B3FF9DA3D3E9002368
S11301B003F0F8FDCBF31304894644F07F518046E5
S11301C0A64B0022504641F4401103F0E9FD96A3EA
S11301D0D3E9002303F09CFF02460B464046494600
S11301E003F0E0FD04F02EFA044603F027FF90A389
S11301F0D3E900238046894603F08AFF984B002206
S113020003F0D0FD04F01EFA8BA3D3E900230746C4
S11302104946404603F07CFF80463846894603F051
S11302200DFF87A3D3E9002303F072FF02460B46B8
S11302304046494603F0B4FD02460B46CDE90C2383
S113024003F066FFDDE90C23804689461046194613
S113025003F0A8FD834BCDE9100100224046494636
S113026004F080F8804B002203F09CFD02460B460C
S11302704046494604F076F87C4B002203F092FD98
S113028002460B464046494604F06CF8DDE90C236F
S11302908046894600204FF0804103F081FD0246EC
S11302A00B464046494603F07DFD02460B46DDE918
S11302B0100104F057F807F2FF376D4B002203F0EA
S11302C071FD00223B0503F023FF52465B46804646
S11302D0894604F0ADF9002840F08C80CDE90C8902
S11302E004F16303C72B34BF0427052731051ED54A
S11302F055A3D3E900235046594604F08FF900284A
S113030000F0828052A3D3E900235046594604F0FA
S113031071F9002878D0A542C8BF2C1B4FF0000704
S1130320CCBF04F1FF35002546F480663C460E9BA5
S11303309F4234BFA3EB07084FF0000816F00209F0
S113034003D0002F18BF4FF000083CB15046594667
S1130350DDE90C2304F006F882468B46DDE906014C
S11303600022002304F046F910B10BF100439B4630
S113037026F40063CDE90383CDE900ABDDE90A325D
S1130380DDE90801029500F07FF802465FB316F03C
S1130390200F00F10105DDE909130CBF652045209C
S11303A0089EB0470523059300220A23002CCDE9BB
S11303B0023207F1FF374FEAD473B8BF64420193A6
S11303C02A46DDE908010A9B0497009405F01FF80A
S11303D00246B9F1000F06D00B9BC41A0B9B1A19E5
S11303E00E9BA34246D8104613B0BDE8F08FDDE95A
S11303F006ABCAE61C4B00224046494603F0B2FF56
S1130400013CCDE90C016BE7002D90D00F9B002B34
S11304108DD0013D8BE700BFFB799F501344D33F40
S1130420B3C8608B288AC63F61436F63A787D23FF6
S113043071A379094F930A401655B5BBB16B0240BD
S1130440EF39FAFE422EE63F2D431CEBE2361A3F0B
S11304500000000080842E41FFFFEF7F0000F83F82
S11304600000E03F00002C40000024400000184041
S11304700000F03FDDE90913089D2020A84701345E
S1130480ACE700BF000000002DE9F04F97B0DDE9B4
S113049020ABCDE90501CDE90723504652465B4622
S11304A05946DDE92257249E04F09AF870B90323D3
S11304B0CDE922762193B44B2093DDE90501DDE9F2
S11304C0072317B0BDE8F04F04F0C1BE4FF0FF3270
S11304D06FF480135046594604F08CF828B1042375
S11304E02193CDE92276A94BE6E7A94B4FF0FF32E1
S11304F05046594604F09CF868B1A64A06F0040335
S1130500002B08BF0322A44B1CBF13460422CDE9D1
S113051022762192D0E798A3D3E900235046594686
S113052004F086F838B996A3D3E900235046594617
S113053004F060F868B1DDE90723DDE90501CDE9E0
S11305402376CDE920AB229517B0BDE8F04FFFF735
S1130550D7BD002200235046594604F04BF800282A
S113056000F09A805B4652460020002103F018FCFC
S1130570012382468B46099316F4806400F08E8032
S1130580092D40F28E800EABA5F109020024302122
S11305900134202C03F8011BA5EB040901D094427B
S11305A0F6D15946504604F04DF87C4B03EBC90391
S11305B093ED007B05468DED0A7B03F03FFD02467B
S11305C00B465046594603F0EBFBDDE90A2303F0E2
S11305D09FFD02460B46CDE90C2304F05BF88046F0
S11305E003F01CFD02460B46DDE90C0103F0D8FBC9
S11305F002460B46CDE90C23694B002204F018F89F
S1130600002851D008F10108404603F007FD0246D6
S11306100B46DDE90A0103F0F7FF10B101354FF095
S11306200008B9F1000F50D1284603F007FD024637
S11306300B465046594603F0B3FB594B0022804603
S1130640894603F0D7FF30B1554B00224046494656
S113065003F0EEFF10B1E80700D501350EAB1A190F
S11306600A21202C0AD095FBF1F001FB10553035FE
S113067002F8015B013405460028F2D106F00302BA
S1130680012A5FD1002F5DD0099A12B916F00C0F20
S113069000D0013F302244E009906DE74FF0060995
S11306A07FE7A94600247CE7DDE90C013C4B0022EE
S11306B003F0A0FF0028B4D1B8F1000F02D018F065
S11306C0010FAED008F10108ABE70EAB23440A21B9
S11306D0202C0DD0B8FBF1F001FB10823032B8F1C0
S11306E0090F03F8012B09F1FF3904F1010411D8B2
S11306F0A1440EAA3021202CB0D0A14504F101035D
S11307000AD11C4609F158030DEB03092E2309F8FD
S1130710203CA3E78046DBE7A1541C46EBE71A55CF
S11307200134A7420ED9202CF9D1CDE90034CDE90A
S11307300276DDE90723DDE9050104F088FD17B041
S1130740BDE8F08F202CF0D0099A3AB104F1580298
S11307506A442D2102F8201C0134E6E7710704D510
S113076004F158026A442B21F4E73207DDD504F181
S113077058026A442021EDE70000000065CDCD4118
S11307800000000065CDCDC1A85D0000AC5D000097
S1130790FFFFEF7F9F5D0000A45D0000B85D0000D7
S11307A00000E03F0348044B834202D0034B03B1F3
S11307B018477047A0100020A0100020000000007F
S11307C00548064B1B1AD90F01EBA301491002D0AF
S11307D0034B03B118477047A0100020A01000205D
S11307E00000000010B5064C237843B9FFF7DAFF88
S11307F0044B13B10448AFF300800123237010BDF0
S11308002C16002000000000845E000008B5054B93
S11308101BB105490548AFF30080BDE80840FFF768
S1130820CFBF00BF00000000A0100020845E0000C5
S1130830A3F5803A704700BF174B002B08BF134B3A
S11308409D46FFF7F5FF00218B460F461348144AD7
S1130850121A04F0DEFE0E4B002B00D098470D4B0D
S1130860002B00D098470020002104000D000D4803
S1130870002802D00C48AFF3008004F053FA2000A3
S1130880290004F05BFE04F09DF800BF000008009E
S1130890000000000000000000100020A010002054
S11308A038160020000000000000000038B501F0F8
S11308B0E5FC0E480E4D012101F0BEF80122012491
S11308C01146104601F00CFC224621462046C5F88C
S11308D0804001F005FC2046C5F8844022462146AC
S11308E001F0FEFBC5F88840002038BD30253E00ED
S11308F000400E40194B07B501225A641A6842F4AD
S113090080721A6001A802F0A3FA9DF80530012B49
S113091003D89DF80430022B0DD9114B4FF41872F3
S1130920C3F88C220F4AC3F890220F4AC3F8F0226E
S11309300E4AC3F8F8220E4AD2F8A43143F4F8431D
S1130940C2F8A43102F078FB02F060FBFFF7AEFFBF
S113095003B05DF804EB04F0ABBB00BF00000E4035
S113096000400E409A6F050018010004008432080C
S113097000300E40024B0349186800F055BE00BF1A
S11309801C1000200010002008B500F073F8124B72
S113099012498B4212D3124B124900208B4218D3B6
S11309A0FFF74AFF186850F82240586840F8224080
S11309B0013298688242F5D30C33EAE70022F8E763
S11309C01C6844F8220001325C68A242F8D3083360
S11309D0E4E70022F8E700BF8C5E0000985E0000A8
S11309E0985E0000985E00000048704700F04902DD
S11309F0104AD2F8943003F00703023B032B13D8B8
S1130A00DFE803F00C14020E0B4B1B68D2F8000154
S1130A10C0F304200130B3FBF0F07047074BF4E758
S1130A20074B1B685B08F1E7054BEEE74FF4004307
S1130A30ECE700BF00400E40281000202C100020DE
S1130A402010002008B5FFF7D3FF054BD3F8083179
S1130A50C3F308230133B0FBF3F0024B186008BD65
S1130A6000400E4024100020014B1868704700BF5E
S1130A702C100020044B054A9A60D3F8882042F4D5
S1130A807002C3F88820704700ED00E00000000009
S1130A90014B1868704700BF28100020054A06491A
S1130AA00346106803448B4294BF13604FF0FF3039
S1130AB0704700BF301000200000012008B529480D
S1130AC0012100F0B9FF012304220221052002F0D4
S1130AD015F8002001F0FCFF234B0122C3F8102875
S1130AE01146042001F0FCFA204801F033F9204BB0
S1130AF0D3F8F02042F00102C3F8F020D3F8FC2030
S1130B0042F08072C3F8FC20A3F55D43194A1A60D1
S1130B1000F5D520184B00F2FC40B0FBF3F0174B66
S1130B20013802221861C3F8F0204FF48072C3F830
S1130B3004234FF06043124AC3F8B02F114AC3F89C
S1130B40802ED3F8002E42F48072C3F8002EFF22C8
S1130B5083F82020D3F8002E22F48072C3F8002EEC
S1130B60002008BD00350A000080144206000E0073
S1130B7000ED00E0FF030040F8590D00000004E020
S1130B8055CEACC5090001004FF0604330B5D3F831
S1130B90802ED20715D501240B4D8440D5F8FC20B6
S1130BA042F08072C5F8FC20D3F8002E2243C3F82B
S1130BB0002E53F82020002AF0D003F82010002043
S1130BC030BD1120FCE700BF00ED00E02DE9F04F3F
S1130BD09A46554B85B01B78DDF83C909DF844B09F
S1130BE0DDF8508006460F461546002B00F096802F
S1130BF0072A00F295800E9B002B00F09180B9F13A
S1130C00000F00F08D80129BB3F5006F00F3888015
S1130C10012803D1109B002B00F08280434B03EB8F
S1130C2005131B7B002B7DD0414C1022002168460C
S1130C3004F0EFFC04EB451410229FBB3946204618
S1130C4004F0E7FC43F210036380BBF1000F03D10F
S1130C50E37843F00303E370354A0E9BCDF800A01C
S1130C6002EB451CCCE90193129B581E9DF84C30B5
S1130C70690103F00303C0F30A009B0643EA001E64
S1130C8053582C4818404EEA0003012E535017D0F5
S1130C90B8F1000F2ED19CF8023068F304138CF8DD
S1130CA0023027E00021204604F0B3FC4FF44473E3
S1130CB06380BBF1000FCFD1E37843F03003CAE780
S1130CC01323CCF80C309CE80F000CF1100E8EE8C6
S1130CD00F00DCF81C20109BCCF814306FF00301DB
S1130CE061F39F02012FCCF81C2003D1CCF818909B
S1130CF0CCF804300D4A290102EB051342F80180B7
S1130D00159A5A6000272846224669469F605E73FA
S1130D1001F07EFF384605B0BDE8F08F0648FAE7DB
S1130D200648F8E70648F6E72D160020381200209A
S1130D30381100200F80FFF3028000F0018000F0E2
S1130D40078000F038B5124B1B780546DBB1E0B1E3
S1130D5004F091F90F4A00231146147B54B92B6017
S1130D601A0101EB031301258C501D7304F089F95A
S1130D70204638BD0133082B02F11002EDD104F0F6
S1130D8080F90548F5E70548F3E70548F1E700BFB2
S1130D902D16002038120020048000F0028000F09C
S1130DA0018000F013B5164B1868019000238DF8EC
S1130DB0043004F060F9134B1C7824B104F061F999
S1130DC0114802B010BD01221A7004F05AF90F4BF9
S1130DD01C731C7783F82C4083F83C4083F84C4008
S1130DE083F85C4083F86C4083F87C4004230DEB6B
S1130DF003008DF8073001F0C9FE2046E1E700BF8B
S1130E00205800002D160020038000F03812002026
S1130E100A4A127808B552B107280AD8084A02EBE0
S1130E2000131B7B3BB101F079FF002008BD05488E
S1130E30FCE70548FAE70548F8E700BF2D1600204F
S1130E4038120020028000F0018000F0078000F0DA
S1130E500D4B1B7893B1072812D889B10B4B03EBC8
S1130E6000131B7B73B10A4B1A6A0123834013429C
S1130E7014BF012300230B700020704705487047FE
S1130E8005487047054870472D1600203812002089
S1130E9000200E40028000F0018000F0078000F086
S1130EA00D4B1B7893B1072812D889B10B4B03EB78
S1130EB000131B7B73B10A4B1A6E01238340134248
S1130EC014BF012300230B700020704705487047AE
S1130ED005487047054870472D1600203812002039
S1130EE000200E40028000F0018000F0078000F036
S1130EF00B4A127810B50C4662B107280CD859B1C8
S1130F00084A02EB00131B7B43B101F027FF20606A
S1130F10002010BD0448FCE70448FAE70448F8E759
S1130F202D16002038120020028000F0018000F00D
S1130F30078000F02DE9F041DFF86480D8F8607094
S1130F40D8F86C301F4000D5FEE7134C012600256D
S1130F50374218D02368C8F86860A3B1A1686268F2
S1130F600131A16028469847637B012B0BD150B90E
S1130F700A4B03EB45131A7B60F341021A731A7F81
S1130F8060F341021A770135082D4FEA460604F151
S1130F901004DDD1BDE8F0813812002038110020A2
S1130FA000200E4070B50C4E0446012504B970BDF6
S1130FB094FAA4F0B0FA80F006EB001205FA00F3FC
S1130FC024EA03045368002BF0D0117B11B191681B
S1130FD09847EBE79847E9E7B812002008B51220D4
S1130FE001F08EF928B1084B4FF48022C3F8802118
S1130FF01A600A2001F084F928B1034B4FF480628F
S1131000C3F880211A6008BD00E100E0054BD3F865
S11310102804D3F81C24104000F05530C3F82404ED
S1131020FFF7C0BF00A00040054BD3F82804D3F855
S11310301C24104000F0AA30C3F82404FFF7B2BF08
S113104000A000400368694A934270B540F0A5804F
S1131050037AF3B15A1ED2B21E2A1CD8644CA25C85
S11310600A70447A002C3AD0621E1E2A2FD8DFE878
S113107002F036363636141414141430303030304E
S1131080303232323232323234343434343434342E
S113109036001A46E4E7FF22E2E701228A70827AE8
S11310A0002A40D0551E1E2D35D8DFE805F03C3C03
S11310B03C1A1A1A1A1A363636363636383838384A
S11310C03838383A3A3A3A3A3A3A3A3C3C00FF220B
S11310D0E4E70222E2E70322E0E70522DEE700225A
S11310E0DCE701250D71C57A002D4CD0681E1E2841
S11310F041D8DFE800F048481A1A1A1A1A42424244
S11311004242424444444444444446464646464695
S1131110464648484800FF25E4E70225E2E7032560
S1131120E0E70525DEE70025DCE70120887133B11F
S1131130581EC0B21E289ABF2E4B1B5CFF234B7057
S11311401CB3013CE4B21E2C21D82B4B1B5DCB708D
S1131150FAB1013AD2B21E2A1DD8284B9B5C4B71BE
S1131160002D00F0CF806B1EDBB21E2B00F22C8111
S1131170234AD35CC7E0FF20D8E70220D6E7032048
S1131180D4E70520D2E70020D0E70123DFE7FF23DF
S1131190DDE70223E3E7FF23E1E71A4A934240F045
S11311A0B580037AF3B15A1ED2B21E2A1CD8164C4B
S11311B0A25C0A70447A002C4AD0621E1E2A3FD8D0
S11311C0DFE802F0464646462424242424404040D6
S11311D040404042424242424242444444444444E5
S11311E0444446001A46E4E7FF22E2E700000140D7
S11311F0715900005259000033590000145900007D
S1131200F5580000000401407159000001228A7061
S1131210827A002A40D0551E1E2D35D8DFE805F00D
S11312203C3C3C1A1A1A1A1A3636363636363838D0
S113123038383838383A3A3A3A3A3A3A3A3C3C004A
S1131240FF22E4E70222E2E70322E0E70522DEE7E9
S11312500022DCE701250D71C57A002D48D0681EF7
S11312601E283DD8DFE800F044441A1A1A1A1A3E20
S11312703E3E3E3E3E40404040404040424242426C
S11312804242424244444400FF25E4E70225E2E7A7
S11312900325E0E70525DEE70025DCE7012088716A
S11312A033B1581EC0B21E289ABF494B1B5CFF23A2
S11312B04B70FCB1013CE4B21E2C1DD8454B1B5DA8
S11312C0CB70DAB1013AD2B21E2A19D8424B9B5CD8
S11312D04B71BDB16B1EDBB21E2B75D83F4A48E77C
S11312E0FF20DCE70220DAE70320D8E70520D6E771
S11312F00020D4E70123E3E7FF23E1E70223E7E744
S1131300FF23E5E70323CB71002070BD344A9342E9
S11313105CD1037A002B47D0A3F10E02062A8CBFBE
S1131320FF2205220A70467A002E3FD0A6F10D0254
S1131330D2B2122A3AD82B4CA25C8A70827A002A42
S113134036D0A2F10C04E4B2122C31D8264D2C5D17
S11313500C71C57A75B3A5F10B04E4B2122C29D82B
S11313602248005D88713BB30E3BDBB2062B25D8C7
S11313701F48C35C4B701EB3A6F10D00C0B2122807
S11313801ED81C4B1B5CCB70E2B10C3AD2B2122AB1
S113139018D8194B9B5C4B71B5B1A5F10B03DBB2AB
S11313A0122B11D8154AE4E61A46BBE7FF22C4E71C
S11313B0FF24CDE7FF20D5E70523DBE7FF23D9E7AB
S11313C0FF23E0E7FF23E6E7FF239CE70C489CE7C5
S11313D0525900003359000014590000F558000018
S11313E000080140E2580000E2580000E258000002
S11313F0DB580000C8580000C8580000C858000056
S1131400022000F038B5144603F035FE002363646F
S113141084F84830E363237E012B054603D104F1AD
S11314205C0001F08BFF236B1BB1A26B00212046F3
S11314309847284603F025FE636D002B03DC04481F
S1131440BB2103F0CCFD636D013B6365012038BD16
S1131450245800002DE9F041164FDFF85C80044663
S113146094F8406094F84150052E04D838F81630AA
S1131470EB40DB0704D440F2CF31384603F0AFFD34
S113148030231C2213FB062303F1047303F52043CA
S113149005EBC305AD002B681BB994F84830002B4D
S11314A0DED194F8483013B9606CBDE8F0810020B7
S11314B0FBE700BF73580000BC58000013B591F857
S11314C04830012B0C461ED1606A0DF10601FFF76E
S11314D0BFFC9DF80630C3B1606AFFF799FC206A2F
S11314E0FFF796FC606A04F13C01FFF701FD00235D
S11314F084F84830236B0B49616423B1D4E90E02AC
S1131500821A2046984702B010BD206A0DF10701E7
S1131510FFF7C6FC9DF80730002BF4D1A36BE363FF
S1131520E5E700BF052000F038B50546B0B1B9B114
S1131530B2B1B2F5006F13DC03F09DFD95F84830AD
S113154003F0FF041BB103F09CFD064838BD0123E2
S113155085F8483003F095FD2046F7E70248F5E7A3
S11315600248F3E7032000F0012000F0022000F01D
S11315702DE9F04387B01E4690F858708663002327
S113158080F850300E9B0363044688463FBB0568D1
S11315904FF44063EB600369092B23D905F124035D
S11315A03C350127616D0131616513490494CDE92E
S11315B002714FF001090196CDF80090E16A606A6A
S11315C003F033FD0023CDE90333CDE90167CDF802
S11315D00090A16A206A43462A4603F00CFD07B036
S11315E0BDE8F08303D105F118033035D9E705F1DF
S11315F01C033435D6E700BF0514000030B585B0B0
S11316000446084603A9154601F0E6FE38B9CDE9BB
S11316100000044A03992B46204603F0D5FD05B08B
S113162030BD00BFBD1400002DE9F0478F4F0446C4
S11316300D460FCF8AB003AE0FC697E8070086E8C1
S11316400700002C00F0108125B9894D28460AB006
S1131650BDE8F08780220021204603F0DAFF2B68E2
S1131660844A934200F0BC8002F58062934200F009
S1131670BC8002F580629342E7D17F487F494FF4F2
S1131680602226462F46C4E90A12E06446F8043B69
S11316900FCF0FC697E8070086E807006B7D012B84
S11316A008BF8DF81A30AB7D33B1012B40F0A28016
S11316B04FF40073ADF81C302B7D7148012B0ABF29
S11316C00023AB688DF819304FF0010108BF4FF4C7
S11316D0E133059300F0B0F96A48012100F0ACF958
S11316E0E06C012100F0A8F9EB681A1F0C2AACD8B1
S11316F0033B28688DF8183003A901F033FC6A69AC
S1131700236822F47F0222F47F421AB91A6842F451
S113171080321A60AA792979120642EA012269798B
S11317200A43E97D002970D1996FE87901F0E0312D
S113173041EA00410A439A670F225A6701A92046E9
S1131740FFF780FC0546002880D194F81880BDF886
S11317500A309DF804009DF805109DF806909DF848
S113176007A09DF808609DF80970A4F84030B8F10E
S1131770000F53D14346042201F0C0F9434601222D
S11317805146484601F0BAF9A37E012B94BF434663
S1131790012304223946304601F0B0F9E37E3BB917
S11317A00123042294F8411094F8400001F0A6F9B2
S11317B003F061FC344B1A78002A49D101221A70D3
S11317C003F05FFC01F080FDFFF7ECFA002104F167
S11317D02000FFF7B7FA014600283CD02B4D35E72F
S11317E02B482C494FF440224BE72B482B494FF40C
S11317F0502246E7022B02D14FF480735AE7032BA1
S11318007FF423AF4FF4407354E7996F21F01F2105
S113181021F01F01114399670B228EE72B46012209
S113182001F06CF92B4604225146484601F066F952
S1131830A37E012B94BF2B46012302223946304656
S113184001F05CF9E37E002BB2D101230222A9E767
S113185003F017FCB8E704F12400FFF773FA054618
S113186000283FF4F3AEB9E70D4DEFE690590000C0
S1131870022000F0000001400052040001000E00AC
S11318804041050000350A002E160020092000F012
S11318900032040001000C000042040001000D00AD
S11318A0012000F02DE9F7431F46037EDDF82C905C
S11318B004468846164623B33A46FFF735FE0546E6
S11318C0A0B906B3B9F1000F05D02246494604F188
S11318D05C00FFF793FE237F012B0BD00A9B009340
S11318E032463B4641462046FFF742FE284603B0B7
S11318F0BDE8F0832046FFF7ADFD0028EED0054695
S1131900F4E7024DF2E7024DF0E700BF082000F0D3
S1131910022000F00C4B984205D90C4B984210D889
S11319200122012301E00022134609490B640949FD
S1131930D1F8003123F0807343EA0263C1F8003127
S113194070470222EDE700BF0048E8010090D00391
S11319500000C84300400E4038B5114B5B68114B82
S113196000221C46C9B21D798D4202D11D688542F0
S11319700BD20132052A03F10803F4D141F6140114
S1131980094803F02CFB032102E004EBC204617953
S1131990034A536823F0407343EA0163536038BD3C
S11319A000000E40F4590000AC59000038B5074C53
S11319B041F67133256C2364FFF716F8ADB20021AC
S11319C0FFF7CAFF0DB10023236438BD00000E40A9
S11319D0044BDB6B5B0604D4034AD2F8C830002BFB
S11319E0FBD1704700300E400000C64308B5FFF736
S11319F0EFFF024B5868C0F3014008BD00300E40B1
S1131A00044BD3F84421D20703D4D3F84021104225
S1131A10FBD1704700400E4038B5064C256C41F6AA
S1131A2071332364ADB2FFF797FF0DB10023236434
S1131A3038BD00BF00000E4038B5C0F30323013B9E
S1131A40092B06D8DFE803F00C2E050532292405FE
S1131A501C18BDE83840174841F6B05103F0BFBA2E
S1131A60154DC0F3043405F1424505F5801504EB2A
S1131A70C5008000016038BD104DC0F30434F2E7A6
S1131A800F4DC0F304344FF48030FFF7B9FFEAE799
S1131A90C0F304340B4D1020F7E7C0F304340A4DAF
S1131AA00120F2E7094DC0F30434DCE7084DC0F32C
S1131AB00434D8E7AC59000000400E4050410E40B9
S1131AC0F0400E40E8400E40E0400E40C0400E4062
S1131AD0B0400E4008B5C0F30313013B092B60D896
S1131AE0DFE803F0050B0F195F5F1F233C532E4BF8
S1131AF0D3F80001C0F3042008BD2B4BD3F8140124
S1131B00F8E7294BD3F80031C3F300630133012014
S1131B1098400138F0E7244BD3F80C01C0F30820B7
S1131B20EAE7214BD3F80801F8E7204B984209D0A3
S1131B301F4B98420CD041F654711E4803F04FFAE3
S1131B400020D9E7184BD3F8203103F00F03DEE768
S1131B50154BD3F82031C3F30113D8E7164B984241
S1131B6008D003F5B01303F58053984206D041F62C
S1131B707871E2E70C4BD3F82831ECE70A4BD3F841
S1131B802831C3F301230433C1E70C4B984205D138
S1131B90054BD3F8300100F00300ADE741F687713F
S1131BA0CBE741F6AC71C8E700400E408006160052
S1131BB080162E00AC59000090171A00A0091400DA
S1131BC000F00F00013808B5072852D8DFE800F00C
S1131BD004152251313B51432E4BD3F8943003F07A
S1131BE00703023B052B06D8DFE803F0502B29033B
S1131BF0054A0B2008BD0520FCE7264BD3F88030AE
S1131C0003F00703013B042B17D8DFE803F01A188D
S1131C10163B3D001F4BD3F8843003F00703013B10
S1131C20042B0AD8DFE803F00D0B032E3000062046
S1131C30E0E7184BD3F88830E2E70120DAE7022026
S1131C40D8E70320D6E7134B1B6F13F0010F0CBF2B
S1131C5007200920CEE70F4BD3F85C3103F03003A3
S1131C60202B13D0302B13D0102B0CBF07200120B6
S1131C70C0E7094842F2013103F0B1F90020B9E7A5
S1131C800C20B7E70A20B5E70D20B3E70420B1E73D
S1131C900820AFE700400E40AC590000284B9842A2
S1131CA010B504460DD1FFF78BFF264BD3F88440C3
S1131CB004F00704052C3BD8DFE804F03F24283067
S1131CC02C24214B984205D1FFF77AFF1D4BD3F802
S1131CD08840EDE71D4B984205D1FFF771FF194B82
S1131CE0D3F88040E4E741F61311194803F077F97B
S1131CF02046FFF765FF41F642110446144803F0FD
S1131D006EF9D7E7BDE8104003F063B9BDE81040B1
S1131D10FEF7BEBEBDE8104003F05EB9FEF768FEF4
S1131D20084BD3F80031C3F300630133D84005E016
S1131D30074841F6941103F052F9002010BD00BF8A
S1131D400300200000400E400500240002001E0095
S1131D50AC59000038B500F47813B3F5B01F05464C
S1131D607DD02ED8B3F5402F67D011D8B3F5802F8E
S1131D7052D006D843B1B3F5003F58D04FF4F751D1
S1131D801AE0B3F5202FF9D1BDE83840FEF730BE94
S1131D90B3F5801F00F09880B3F5A01F55D0B3F5BC
S1131DA0602FEBD15748FFF70BFF072800F08C801A
S1131DB00928E9D041F2D661534803F010F9002014
S1131DC034E0B3F5381F53D013D8B3F5001F58D0FF
S1131DD00AD8B3F5D01F56D0B3F5F01FCED14B4877
S1131DE0BDE83840FFF75ABFB3F5101FC6D14848C5
S1131DF0F6E7B3F5481F4DD0B3F5781F78D0B3F5A7
S1131E00401FBBD14348FFF749FF434BD3F8283168
S1131E10C3F30123043320E0FEF7EAFD3E4BD3F87D
S1131E200C31C3F308230133B0FBF3F038BDFEF7E4
S1131E30DFFD394BD3F80831F3E7FEF7D9FD364B14
S1131E40D3F81431C3F30423EDE73148FFF726FF39
S1131E50314BD3F8303103F00303D840E6E72B4885
S1131E60FFF71CFF2C4BD3F8203103F00F03F4E7EA
S1131E702648FFF713FF284BD3F82031C3F301138F
S1131E80EBE72448ACE72348FFF708FF224BD3F8DD
S1131E902831F3E72148FFF793FE0138072824D8B7
S1131EA001A353F820F000BFBF1D0000EB1E00008B
S1131EB0EB1E0000CF1E0000EB1E0000EB1E000016
S1131EC0C91E0000D71E0000154B1868AEE7BDE818
S1131ED03840FEF7C9BDFEF78BFD0F4BD3F8003138
S1131EE0C3F3042303FB0000A0E741F20D7163E791
S1131EF0FEF77EFD0446284603F0B1F8B4FBF0F08B
S1131F0094E700BF06000E00AC59000002001E005A
S1131F10050024000300200000400E40B8003200F9
S1131F203410002038B50C4604287BD8DFE800F0D4
S1131F306403451B3000B1F5007F04D33D4842F6ED
S1131F40B44103F04CF83C4AC4F30804D2F86838AE
S1131F50002BFBD1394A136A23F4FF7323F00103E6
S1131F602343136238BD7F2904D9324842F6C14164
S1131F7003F035F8304A04F07F04D2F86038002BBF
S1131F80FBD12E4A136923F07F031C431461E9E754
S1131F907F2904D9274842F6DC4103F020F8264A79
S1131FA004F07F04D2F86438002BFBD1234A9369F0
S1131FB023F07F031C439461D4E7204DD5F890307F
S1131FC05B0704D51B4842F6EC4103F008F86B6A42
S1131FD023F0300343F010036B62296B184BC4F3F6
S1131FE0C31203320F2A03EA010328BF0F2223433B
S1131FF043EA02732B63B5E77F2904D90D4842F6FF
S1132000075102F0ECFF4F2C0B4A28BF4F24D2F8A3
S11320107438002BFBD1094A936B23F07F032343CD
S113202093639FE7BDE83840024842F6155102F039
S1132030D6BF00BFAC5900000020C84300400E408A
S113204000F8FF0F022838B50C4604D0134842F6B6
S11320502D5102F0C4FF124D6B6A13F0300F1AD0E9
S1132060202C15D0302C16D0ACB10C4842F6485177
S113207002F0B5FF0B4BD5F8902033EA0202FAD1F7
S11320805B024ABFD5F8A0000120C0F3802038BD10
S11320904FF40003EFE74FF44003ECE7AC590000C2
S11320A000400E40FFF3E17F022808B50CD129B1AE
S11320B0094B4FF48060C3F8A80059664AB1BDE8E3
S11320C008400220FFF7BEBF044842F67E5102F0EA
S11320D086FF012008BD00BF00400E40AC5900003F
S11320E02DE9F34180460C461746072831D8DFE82E
S11320F000F0383F4B504530300401A800F0A8FEF2
S11321009DF80530012B0AD89DF80430022B06D81F
S1132110564C42F6EB31204602F061FFF9E7002C01
S113212040F085804FF400420E240F2350490A6684
S11321300122A240D1F890001042FBD1002F73D0AD
S113214001224B4902FA03F3D1F890201A42FBD141
S11321506AE0464842F6F93102B0BDE8F04102F0C7
S11321603EBF002969D14FF4007208240923DDE73A
S1132170002967D1802206240723D7E7002965D1E7
S1132180202204240523D1E741B908220224032391
S1132190CCE700295ED102220123C7E7344D6B6AE4
S11321A013F0300F5AD1334BDB6B5A0504D42F484C
S11321B042F6084102F013FF6B6ADB0741BF6B6A0A
S11321C023F0300343F010036B620426022303213F
S11321D0274A1666284A13449B0018680028FCD036
S11321E017B311448D002B68002BFCD0B8F1020FFB
S11321F01AD1CCB11E4C616A11F0010132D0012216
S113220020214046FFF750FFD4F89C7001220021A2
S11322100220FFF765FFC7F30A010220FFF782FEE1
S113222026662B68002BFCD002B0BDE8F0814FF489
S113223080460E230F210024CAE74FF4807608233A
S11322400921F8E7402606230721F4E71026042392
S11322500521F0E7012600233146ECE7042602239A
S11322600321E8E74046FFF7EDFECDE7AC59000057
S113227000400E4000300E408004F2101C4B70B53C
S11322801C681C4B9C4221D81B48FFF743FB0122CE
S113229011460320FFF724FFFFF788FB0024174BA8
S11322A001265E67FEF7A4FBFFF734FBFEF7CAFBCB
S11322B00546FFF79BFB01462846FFF7ADFBB4B983
S11322C031462046BDE8704000F0F0B800212046B9
S11322D000F0ECF80848FFF71DFB0122114603202B
S11322E0FFF7FEFEFFF762FBFFF772FBD7E770BD57
S11322F020100020002D31010148E80100400E406B
S1132300C3B22E2B10B5044604D908484FF44D71BE
S113231002F065FE6209064B53F8220004F01F0424
S1132320E040C04300F0010010BD00BF1C5A000093
S113233000E100E0034BD86B80F04000C0F3801054
S1132340704700BF00300E4042EA0322B2F5007F1E
S113235010B5194C29D00AD8B2F5807F22D040F2AA
S113236001139A4215D062B9D4F81C320BE0B2F5CD
S1132370407F1DD040F201339A4210D0D4F8283265
S113238001E0D4F82432C3F30722DBB203600A600D
S113239010BDD4F824321A0EC3F30743F6E7D4F879
S11323A02832F8E7D4F81C32F5E7D4F82032EAE70B
S11323B0D4F82032EFE700BF0081E00F08B5FFF743
S11323C0B9FF20B1024AD2F8C830002BFBD108BDB6
S11323D00000C6430E4A0379916921F03F010B4383
S11323E0017843EA8103417843EA4103817843EA6F
S11323F0C103C178012908BF43F001039361136845
S1132400417923F4403343EA01431360704700BF2A
S113241000300E402DE9F04104460F46FFF78AFFD5
S1132420C8B3DFF88480FFF7C9FFD8F80430C3F3DA
S113243001439C422FD0194BD3F80061FEF7D8FA20
S1132440022C054617D1164BC6F3042606FB0006DC
S11324509E4204D9134840F29C7102F0C0FD02214F
S11324602846FFF7D9FA104B10221A619FB1BDE834
S1132470F041FFF7A3BFC4F1020210239340C8F850
S113248010300FB1FFF79AFF2CB921462846BDE85A
S1132490F041FFF7C1BABDE8F08100BF00400E4033
S11324A0002D3101655A000000300E4038B5054654
S11324B00C46FFF73FFFB8B145B90C4BD3F80051B8
S11324C0FEF796FAC5F3042505FB0005084B1B78B7
S11324D021463BB1074B9D4204D80220BDE8384059
S11324E0FFF798BF0020F9E738BD00BF00400E4059
S11324F02F160020002D3101174B4AF6E85210B573
S1132500596B5A639A6FD407FCD41B6C13F0030302
S113251006D0124A01249842C2F8B44A05D110BD2B
S113252018B90E4BC3F8B40AF9E70B4B9A6FD207EC
S1132530FCD41A6C22F0030202431A649A6F12F05C
S11325400102FBD10038054C18BF01200129C4F851
S1132550B40A08BF5A63E2E700300E400000C643E5
S11325602DE9F04F00238BB0CDE90433CDE90633D8
S1132570CDE90833A0F5E163B3F5966F0546019103
S1132580934608D940F6FF316E4802F028FD00203A
S11325900BB0BDE8F08F6C4BDFF8B081D3F8184274
S11325A0B0F5E16F15BF4FEA146AC4F3072AC4F308
S11325B00744E4B20694CDF824A0D8F84C60C6F3DE
S11325C001768CBF01220022334607A904A815BF57
S11325D04FF4E1674FF496674FF496694FF4167918
S11325E00392FFF7B1FED8F8E030039AC3F3012356
S11325F008A905A80293FFF7A7FEA5EB070CAAEB11
S113260004020CFB02F2B2FBF9F214445445079F96
S11326100498089A05991ED8A2EB010E0CFB0EFE35
S1132620BEFBF9FE11EB0E012CBF4FF0010E4FF073
S1132630000E8A420FD3BEF1000F0CD13A1A0CFBE4
S113264002F2B2FBF9F280182CBF01220022874269
S113265001D3029B12B140F64D4195E7BBF1000F47
S11326600FD0D8F85C20B5F5E16722F4FE4218BF1C
S1132670012722F0020242EA470242EA0422C8F891
S11326805C20019A0AB9012082E72F4A022ED2F86F
S1132690302212D0032E13D0012E14BFD2B2C2F3B3
S11326A00722120312F4702F0CD040F6052125489E
S11326B002F095FC40F65C4166E7C2F30742F0E79E
S11326C0120EEEE7214EF46E24F470442243F266B7
S11326D01D4A022BD2F8302212D0032B13D0012B27
S11326E014BFD2B2C2F30722120312F4702F0CD01B
S11326F040F61121134802F072FC40F6644143E7AE
S1132700C2F30742F0E7120EEEE7104CD4F8E030C3
S113271023F470431343C4F8E030636E884238BF37
S1132720084623F4FF73E72823F0010328BFE720BA
S1132730B5F5E16F18BF43F0010343EA4003636654
S1132740A1E700BF655A00000081E00F00300E4091
S1132750324A08B5136FD16C11F0010F03F0060370
S113276042D0002B40D0132855D9143813288CBFDD
S1132770102308232949013BCA6C180322F47F4221
S113278040EA03231343CB64254BCA6C1B88C2F372
S113279003222833013202EB820003EB5303B3FB21
S11327A0F0F3C86C013B072B28BF072320F0EE6031
S11327B040EA036343F48013CB641A4BB3F900304B
S11327C0002B10DB2833500800EB420203EB5303C9
S11327D0B3FBF2F30A6D072B28BF072322F0700224
S11327E042EA03130B6508BDD16C01F001011943E2
S11327F004D109280FD90A380928B8E7D26CD207BE
S113280002D50BB92728B2E7074840F6A24102F0E7
S1132810E6FB0023AEE70423ACE700BF00300E4024
S11328202816002024160020655A00000C4BD3F80B
S1132830803910B5044633B9012804D909484FF446
S11328404C6102F0CCFB084A136F23F007032343C7
S11328501367064BBDE810401888FFF779BF00BF27
S11328600000C643655A000000300E4026160020C2
S113287038B50389C82B044604D9514840F6A4212D
S113288002F0ADFBA28823899A4204D94C4840F651
S1132890A52102F0A4FBB4F90C30C82B04DD484890
S11328A040F6A62102F09BFB6378012B55D1A38847
S11328B0C82B04D940F6AA21414802F090FBE288D3
S11328C042F210739A4204D93D4840F6B72102F00F
S11328D086FBE2884A2A48D9B2F5FA7F47D340F604
S11328E0C3139A428CBF4FF040524FF00052354907
S11328F0B4F90C00CB6C23F0405323F001030028FF
S1132900A8BF43F001031343CB64D1F8E030A2889D
S113291043F44073C1F8E0302B4B1A80CB6E43F084
S11329208073CB66294BD3F8800900B10420FFF7EC
S11329307DFF274B21891980264BB4F90C20A088F0
S11329401A80FFF705FFA37BA3B1012B23D01C48FA
S113295040F6B61102F043FB0FE0022BAFD1A3887F
S11329600A2BACD940F6AF21A6E70022BFE74FF00F
S11329708052BCE7134B184A9A65012260881146BD
S1132980FFF7EEFD054648B90D4840F6EE2102F08A
S113299026FB284638BD0B4B104AEDE7094AD36B9A
S11329A043F48063D3636078FFF7A6FDA37AA3F1B1
S11329B0200253425341054AC2F89437E9E700BF65
S11329C0655A000000300E40261600200000C64361
S11329D0281600202416002077402057372110B7EE
S11329E038B5194A0B68934205460C4628D0B3F50E
S11329F0803F03D315484C2102F0F1FA23881F21AC
S1132A005A08B2B98B401A0C1021237AE07A9B023F
S1132A1043EA4033207B0343607A43EA4023A07AAD
S1132A2043EA00230B432B6001B1EA606368AB60A7
S1132A3038BD02F0010040EA430301395208E0E7DF
S1132A4000221146E1E700BFB71DC104AD5A0000E2
S1132A50052838B504460D4605D80B4B33F810301D
S1132A60CB40DB0704D4094840F22D4102F0B7FA09
S1132A7030230C2113FB041303F18C43012203F5CF
S1132A802043AA401A6038BD405B00007358000020
S1132A90052838B504460D4605D80B4B33F81030DD
S1132AA0CB40DB0704D4094840F2FE3102F097FA28
S1132AB030230C2113FB041303F18843012203F593
S1132AC02043AA401A6038BD405B000073580000E0
S1132AD01F2810B5044603D90648522102F07FFA94
S1132AE0054AD2F8443423F003032343C2F84434A0
S1132AF010BD00BFF75A000000A000400528F8B53B
S1132B0004460D4616461F4605D81C4B33F81030B4
S1132B10CB40DB0704D41A484FF4B07102F05FFADB
S1132B2026B129462046CFB1FFF792FF04EB4403B8
S1132B30072D4FEA03134FF00F0112D8A80006FA2D
S1132B4000F281400F48184402F0A3FAAEB92946B6
S1132B50204677B1BDE8F840FFF77ABFFFF798FF4A
S1132B60E4E7A5F10800800006FA00F28140064877
S1132B70E9E7BDE8F840FFF78BBFF8BD405B000014
S1132B80F75A000004A0004008A0004010B5044615
S1132B9018B91C48912102F022FA23781B0613F07D
S1132BA0784F03D01748922102F019FAE378072BE3
S1132BB003D91448A32102F012FA01214FF4AA40C8
S1132BC0FEF73AFFB4F8013022785BBA9BB243EACD
S1132BD002630D4A136000231362D36253634FF000
S1132BE00043D3664FF0FF339366084A4FF40071F5
S1132BF0C2F88011E3785B01DBB282F8093311601B
S1132C0010BD00BF4C5B000000200E4000E100E05E
S1132C102DE9F041C3B20126072805460C4690462B
S1132C2006FA03F603DD3A48EC2102F0D8F91CB9A0
S1132C303748ED2102F0D3F9236823F47C1323F001
S1132C400F031BB13248F22102F0C9F9A37A1B0425
S1132C5013F47C0F04D02E4840F2091102F0BFF99E
S1132C60E37A1B0513F07E6F04D0294840F20B1160
S1132C7002F0B5F9237B5B0513F0FE5F04D0244812
S1132C8040F20D1102F0ABF9224F3022BE6602FB76
S1132C9005702368C0F88030637BC0F88830E37A1D
S1132CA0A27A1B0543EA0243227B43EA4253C0F85B
S1132CB0843028F00303C0F8983002F0DCF9FB6E8E
S1132CC03343FB66237A13B17B6B33437B63637AB1
S1132CD013B1FB6A3343FB6223793A6823B1DB43C4
S1132CE01B0263F47F431A4063790BB142EA032267
S1132CF0A3790BB122EA0302E3791343054A136073
S1132D00054B9E62D663BDE8F04102F0BAB900BF3C
S1132D104C5B000000200E4000200E4410B5C3B2EE
S1132D200124072804FA03F404DD094840F297114A
S1132D3002F055F902F09FF9064AD36E23EA040320
S1132D40D366054B1C62BDE8104002F09AB900BF7F
S1132D504C5B000000200E4000200E44F8B507280C
S1132D60C3B24FF00105044605FA03F504DD0E482D
S1132D704FF4EE7102F033F902F07DF90B4B30227F
S1132D801E6E9F6A02FB0433D3F88C4002F079F97B
S1132D903D4206D1C4F30A1008B9354200D10130CE
S1132DA0F8BD0020FCE700BF4C5B000000200E4093
S1132DB0022838B504460D4603D911484C2102F0C7
S1132DC00EF96B791F2B03D90D484F2102F007F937
S1132DD0AB786A789B0143EA82032A781343EA7842
S1132DE043EA02132A7943EAC2236A7943EA0233A3
S1132DF0AA79043443EA42432401024A135138BDF8
S1132E00DD5B000000200440014B1860704700BFE8
S1132E1000008442437882789B0043EA02130278DC
S1132E201343C27843EA4213027943EA0223427904
S1132E3043EA0233827943EAC233C27943EA024362
S1132E40027A43EA4243014A136070470020044077
S1132E5010B5044618B91048572102F0C0F80F4ABB
S1132E60D2F8E430D2F8E0109B0003F03C03C1F345
S1132E7081110B43A370D2F8E03003F03F03637079
S1132E80D2F8E830D2F8EC2003F0F003C2F30312D6
S1132E901343237010BD00BF265C000000FF0FE049
S1132EA070B506460C46154622B90D4840F28E21EF
S1132EB002F095F81CB90B48FEF74CFF04460A4B88
S1132EC06D00013CB4FBF5F413EA04234FEA042536
S1132ED004D0034840F2B32102F081F8756170BD5B
S1132EE0715C000040410500070080FF1A4B9842C6
S1132EF010B504460CD003F58063984208D003F55E
S1132F008063984204D0154840F2424102F067F8C9
S1132F1040F6AA63E36041F2050200232360626085
S1132F200F4AA3606361E364A2640B4A236694427C
S1132F306367A367E3670DD002F58062944205D00E
S1132F4002F58062944205D0A36502E02365A3657F
S1132F50E36510BD2365F7E700000140715C0000E4
S1132F60F9FF010038B5274B984204460D460CD0B2
S1132F7003F58063984208D003F58063984204D037
S1132F80214840F2693102F02AF82046FFF7AEFFEB
S1132F902B8A226843F001031343AA7B43EA82236A
S1132FA0236023682A7D43EA42732360AB7C1BB110
S1132FB0EB7C43F08003A3652B7B43F48053636075
S1132FC0D5E901122046FFF76BFF6B7B0BB1102391
S1132FD0E3606B7D1BB1236843F480332360AB7DD6
S1132FE01BB1236843F400432360EB7D2A7E1B0757
S1132FF0120503F0E04302F4E002134323662B7846
S1133000E36038BD00000140715C00007FB5094BEE
S11330106A4603F11006154618685968144603C435
S11330200833B3422246F7D12846FFF721FC00209B
S113303004B070BDBC5C000010B50C480C4C6FF0C3
S11330400403A02113F0800F03F1010207D12344EC
S11330502F2A83F800131346F4D1002010BD03F087
S11330600F03043B034419761346EBE700ED00E03D
S113307000E100E010B5044601F0F6FF024B1C60CD
S113308001F0F6FF002010BDB814002010B501F0C7
S1133090EBFF034B1C6801F0EBFF204610BD00BFA3
S11330A0B814002010B500F039F80448044B43600C
S11330B000248460FFF7DEFF204610BDBC1400200E
S11330C0C530000013B5064C23780093054B1B88CC
S11330D002F03DF810B923780133237002B010BD1B
S11330E0301600209410002010B50020144601F082
S11330F0EDFF022804D018B10248C32101F06FFF8C
S1133100204610BDCC5C0000034B18680023806887
S11331100222194601F00CBD4410002008B5054BED
S11331201A6822B9012208201A6001F059FF002010
S113313008BD00BFC814002030B50E4C416123689F
S11331408BB9206083600DE0891A9A6841611D463D
S11331506AB113465A698A42F6D935B1A860521A3F
S113316083605A6130BD0025F4E72060F7E798607A
S11331708260F7E7D414002038B500F039FA094C1E
S1133180094B1A6823680025C31A2AB123B151696F
S1133190994203D3C91A5161206038BD55615B1A45
S11331A09268F2E7D0140020D414002038B5134DEF
S11331B02B685B6993B1124A146802201C4400F026
S11331C04BFA204600F01AFA0E492A6800230B70C5
S11331D0D088800709D501230B7038BD022000F088
S11331E03BFA022000F05EFAEEE79268002AF4D07F
S11331F050690344012BEBD9EFE700BFD41400203E
S1133200D01400203216002070B516469DF8142004
S11332100271049A0260C0E903360022BDF8183036
S1133220826004460D46C380EEB900F0E1F92844FB
S1133230A0619DB12E4601F017FF0546FFF79CFFE4
S113324031462046FFF778FF104B1B68A34201D19B
S1133250FFF7ACFF284601F00BFF02E0E36865616D
S11332607BB9002070BD00F0C3F93044A061002D8B
S1133270E0D1E3686561002BDDD0216820469847E2
S1133280D9E7216820469847EBE700BFD414002013
S11332900C490B6800227BB183420AD183687AB15E
S11332A0936083681BB15A6941690A445A610020DA
S11332B070471A469B68EEE70028EFD0022070475B
S11332C00B60EEE7D414002070B5154E01F0D3FE68
S11332D034780546FCB9134B1C60134B1C60134B2C
S11332E01C8000F03FF9012000F0B6F900F0FAF973
S11332F00F4B0246186020B9284601F0C2FE232075
S113330070BD23460B4840F2E73101F0E3F90A4B64
S1133310186001233370284601F0B3FE0020EFE764
S113332033160020D4140020D01400202A160020C4
S1133330D814002018FCFFFFCC14002070B50446FC
S113334040B301F091FE144E0546FFF715FF3068B7
S1133350A04209D02046FFF79BFF0446B0B128469F
S113336001F086FE204670BDFFF792FF0446002858
S1133370F5D133683BB9022000F07CF9284601F00E
S113338077FE0024EEE7FFF711FFF7E73368002B21
S1133390F4D1F0E72224E5E7D414002038B50C4634
S11333A00546A8B1A1B100230B7001F064FE094BDE
S11333B01B68012133B901F064FE002038BD9D4231
S11333C004D121702278002AF9D0F4E79B68F1E750
S11333D02220F3E7D4140020F8B50C4B1B68834279
S11333E005460E460FD30A4B00241F6840F2E7300F
S11333F021464FF47A720023E5FB070101F06AF9D4
S113340030602046F8BD2120FCE700BFCC1400202A
S1133410D8140020C2072DE9F04704460BD54D4AC5
S1133420138801339BB21380FFF7A6FE4A4B1B6837
S11334300BB1FFF7BBFEA30740F18A8001F01BFE2E
S11334400546FFF799FE4FF00009434F4E46C84624
S11334503C680CB163698BB1404B0022012E1A7099
S113346003D119F0020F18BF1E70002C6CD0FFF7A7
S11334709DFE2846BDE8F04701F003BE23465A6985
S11334803AB91A792179914288BF1C469B68002B6E
S1133490F5D1284601F0F5FD2569DDB100F0A8F865
S11334A0A269A0EB02094FEAE9734D4578EB0303E7
S11334B011DA23691344A361E368B4F80690013672
S11334C013B121682046984701F0D5FD0546FFF762
S11334D053FEBDE7A94601F0CEFD82462046FFF724
S11334E0D7FE504601F0CDFD2369002BE4D0B5EBA7
S11334F009054FEAE97363EB4303002B04DA184828
S113350040F22B5101F06BFDA38B33B1E28B1344DA
S11335109BB2B3F57A7F0FD2E38301F0ACFD294669
S113352081462046FFF708FEA36922691344A3617C
S1133530484601F0A6FDBFE7A3F57A73E383A369C8
S1133540013B013DA361E8E7022000F093F890E716
S1133550BDE8F0872A160020D4140020311600207C
S1133560335D000010B51E4B86B01868596803AA75
S113357003C2197AD3F8090011700024B3F80D209E
S11335800190DB7B1748ADF8082001218DF80A3043
S1133590FEF752FA8DF80C4001F03AFE8DF8100057
S11335A003A8FFF737FC01A901208DF80440FFF7B9
S11335B0FFFB0D4A536A23F4FF6323F007035362AE
S11335C040F2FF73136201209460FFF71DFC074B68
S11335D04FF00042C3F880211A6006B010BD00BF4E
S11335E08F5D0000A00914000020044000E100E009
S11335F0014B9868704700BF0020044010B5044692
S113360001F032FD124A9368516D9269520704D455
S1133610CA1A032A01D88B420DD1E21A022A98BF92
S1133620DC1C0B4BB4F1FF3F38BF013C5C655A6AAC
S113363042F004025A6201F01BFD064A137833B1CA
S113364003490B6D43F002030B650023137010BD97
S113365000200440961000208207054A00F0010370
S1133660516A48BF43F004030B435362704700BFE1
S113367000200440820700F0010309D5074A012114
S1133680117007490A6D22F0030243F004030A652E
S113369003494A6A22EA03034B62704796100020EA
S11336A000200440830742BF014B0422DA617047C3
S11336B00020044010B501F0DEFC094A9369044679
S11336C0590703F0010003F0070348BF40F002006C
S11336D01362FFF79FFE2046BDE8104001F0D1BC05
S11336E00020044008B50448FEF734FB034601F00B
S11336F08FFD23FA00F008BDA00914002DE9F04F56
S113370091B09B460B1E0A93AC4B1A9E904614BF75
S11337108146994600249BF8000060B944450A9903
S11337202CBF08F1FF32224643460020C8472046FA
S113373011B0BDE8F08F25280BF1010B06D022460D
S11337400A99651C4346C8472C46E4E700230DE06C
S11337502D2A2AD0302A06D0303A092A4FF0000701
S113376011D80A2532E043F001038B46594611F87B
S1133770012B2B2A1CD0EBD8202A1CD0232A1DD0A5
S11337802A2A2BD000279BF800202E2A64D19BF8EC
S11337900110A1F1300009280BF1010243F4806308
S11337A051D800254FF00A0C26E043F00203DCE771
S11337B043F00403D9E743F00803D6E743F01003CA
S11337C0D3E705FB0722A2F130078B46594611F8CF
S11337D0012BA2F130000928F3D9D4E756F8047B71
S11337E0002FBCBF43F002037F428B46CBE70CFBA8
S11337F00511A1F130050246104610F8011BA1F194
S1133800300EBEF1090FF2D9114611F8010B6C28E4
S11338102CD024D8682830D06A2837D011468B465B
S11338201BF8010B672875D857284BD8452807D0B3
S113383085D9462800F03181472880D143F40063BC
S113384043F0200341E12A2907D156F8045B0BF128
S1133850020225EAE575D7E75A460025D4E774281D
S113386001D07A28DAD143F48073D8E750786C28F1
S1133870F9D143F44073911CD1E75078682802D001
S113388043F08003CBE743F0C003F4E743F4007351
S1133890C5E70A2A00F06681072A7FF450AF43F097
S11338A0210305930823CDE903531023CDE9011324
S11338B056F8043B00930A9943462246484601F0D1
S11338C0A6FDFCE0A0F158020F2A3FF638AF01A193
S11338D051F822F0453900003F3700003F3700001F
S11338E03F3700003F3700003F3700003F370000FC
S11338F03F3700003F3700003F37000045390000E4
S1133900ED3A000045390000C33A00009F3A000038
S1133910C33A0000A0F16902D2B20F2A3FF60FAFFA
S11339200121914049F2410C11EA0C01B1D07828EF
S113393003F4806122D1002900F0908023F00D026D
S1133940102307E0622803F4806220D142BB23F0F5
S11339500C02022312F4007100F08380CDE9077297
S11339600022CDE9043206F1070A2AF0070A069577
S11339700292FAE80223CDE900233DE06F2812D138
S113398023F00C0209B123F00D020823E2E75828C2
S113399016D1002A39D123F00C0242F02002CFE7DD
S11339A023F00D02D5E7692823F0100230D023F06C
S11339B01C0209B123F01D020A23CBE74D5200007B
S11339C042BB23F01002930527D5073626F00706DD
S11339D0B24671685AF8083B0695CDE907720A2683
S11339E0CA0F00270029CDE90467029202DA5B427C
S11339F061EB4101CDE900310A994346224648462C
S1133A0001F048FD0446564685E623F00D02C4E75E
S1133A100029D8D023F01102D5E7D00506F1040A15
S1133A2001D5336802E0510613D533780395CDE907
S1133A3004720A220292002B4FEAD3720192B8BF99
S1133A405B4200930A9943462246484601F0DFFC54
S1133A50D8E71306E5D5B6F90030E7E723F00C0202
S1133A606EE7D00506F1040A06D5CDE90472CDE966
S1133A70023501913368E4E7510608D53178CDE980
S1133A8002350023CDE90472CDE90013DAE7316889
S1133A9012F0800F18BF89B2F1E743F02003CDE99B
S1133AA00373073626F007060295F6E802230A99FF
S1133AB0CDE90023484643462246FCF7E5FC04468C
S1133AC029E6672801D143F40063CDE9037307367F
S1133AD026F007060295F6E802230A99CDE90023A9
S1133AE0484643462246FCF70BFBE8E713F0020581
S1133AF023D04FF0010A631C0B930A9916F8040BA8
S1133B0043462246C8475DB30B9A54461EE00A99C1
S1133B1043462020C8470AEB04020AF1010A57452C
S1133B20F5D8002F07F1FF3308BF002307F1010A7E
S1133B301C4408BF4FF0020ADDE7AA46EBE7551C18
S1133B400A9943462020C84701342A46BC42F6D38A
S1133B500B9AA7EB0A03574538BF00231A440B926C
S1133B600B9CD8E53246002D52F8046B0B9214BF1F
S1133B7029464FF0FF3131443246107808B18A4269
S1133B8011D1A2EB060A13F480620C9202D0AA456A
S1133B9028BFAA4613F002030D931BD1AAEB04031A
S1133BA022460F9308E00132E7E7531C0E930A996B
S1133BB043462020C8470E9A0F9BD3189F42F4D83F
S1133BC0A7EB0A03574538BF00230AF101021C443E
S1133BD003EB020AA31B0E9304E01D460A99434615
S1133BE02246C8470E9BF41816F8010B28B10C9B0B
S1133BF0002BF3D06B1E002DEFD10D9B93B1224609
S1133C00AAEB040505E0561C0A9943462020C84740
S1133C10324653199F42F6D8A7EB0A03574538BFDB
S1133C2000231C440B9E76E50EB40FB505AA01468D
S1133C3052F8043B0392009204484FF0FF32FFF71E
S1133C405DFD04B05DF804EB03B07047455200001D
S1133C5030B50C480C4D85B00121FDF7EDFE0B4B42
S1133C600FCB6C4684E80F004FF0FF332146284603
S1133C700193FEF7B5FE064A01236B60136005B09D
S1133C8030BD00BF00650A0000C00140085E0000AE
S1133C900000384208B5054801F0F6F9044B054820
S1133CA000211960BDE80840FDF7C6BE00C0014010
S1133CB00000384200650A0010B50446FFF7C8FF4B
S1133CC0034B9C61DC69FFF7E5FFE04310BD00BFD7
S1133CD000C0014011B9024B01221A70704700BFA5
S1133CE03416002010B5234C237892B033B120222F
S1133CF0002102A801F08DFC002323709DF80A30F6
S1133D00542B1FD12320FFF7D7FF1B49034623223F
S1133D100AA8FFF789FF194C19480023237001935F
S1133D20184B00930068202302AA0AA9FDF7BAFDE4
S1133D3018B11548892101F052F92378002BFCD0E1
S1133D4012B010BD482B06D11A20FFF7B5FF0F495A
S1133D5003461A22DCE7502B07D1FA20FFF7ACFF09
S1133D600B49034640F2FA32D2E70A490AA8FFF7A0
S1133D705BFFD0E797100020185E00003416002087
S1133D801C100020D53C00005D5E0000295E000090
S1133D903A5E00004B5E000081F0004102E000BF8B
S1133DA083F0004330B54FEA41044FEA430594EAF7
S1133DB0050F08BF90EA020F1FBF54EA000C55EA32
S1133DC0020C7FEA645C7FEA655C00F0E2804FEA03
S1133DD05454D4EB5555B8BF6D420CDD2C4480EAE5
S1133DE0020281EA030382EA000083EA010180EA15
S1133DF0020281EA0303362D88BF30BD11F0004F63
S1133E004FEA01314FF4801C4CEA113102D0404298
S1133E1061EB410113F0004F4FEA03334CEA1333D3
S1133E2002D0524263EB430394EA050F00F0A780EB
S1133E30A4F10104D5F1200E0DDB02FA0EFC22FAE6
S1133E4005F2801841F1000103FA0EF2801843FADA
S1133E5005F359410EE0A5F120050EF1200E012ACB
S1133E6003FA0EFC28BF4CF0020C43FA05F3C01809
S1133E7051EBE37101F0004507D54FF0000EDCF182
S1133E80000C7EEB00006EEB0101B1F5801F1BD32B
S1133E90B1F5001F0CD349085FEA30004FEA3C0C2F
S1133EA004F101044FEA445212F5800F80F09A8025
S1133EB0BCF1004F08BF5FEA500C50F1000041EB29
S1133EC0045141EA050130BD5FEA4C0C404141EB2D
S1133ED00101013C28BFB1F5801FE9D291F0000F28
S1133EE004BF01460020B1FA81F308BF2033A3F1D7
S1133EF00B03B3F120020CDA0C3208DD02F1140CCE
S1133F00C2F10C0201FA0CF021FA02F10CE002F108
S1133F101402D8BFC2F1200C01FA02F120FA0CFC01
S1133F20DCBF41EA0C019040E41AA2BF01EB04514A
S1133F30294330BD6FEA04041F3C1CDA0C340EDC48
S1133F4004F11404C4F1200220FA04F001FA02F38B
S1133F5040EA030021FA04F345EA030130BDC4F149
S1133F600C04C4F1200220FA02F001FA04F340EA3E
S1133F700300294630BD21FA04F0294630BD94F0EF
S1133F80000F83F4801306BF81F480110134013DD6
S1133F904EE77FEA645C18BF7FEA655C29D094EA47
S1133FA0050F08BF90EA020F05D054EA000C04BFC5
S1133FB01946104630BD91EA030F1EBF00210020B0
S1133FC030BD5FEA545C05D14000494128BF41F04F
S1133FD0004130BD14F580043CBF01F5801130BDB3
S1133FE001F0004545F0FE4141F470014FF000003E
S1133FF030BD7FEA645C1ABF194610467FEA655CEF
S11340001CBF0B46024650EA013406BF52EA033590
S113401091EA030F41F4002130BD00BF90F0000F7E
S113402004BF0021704730B54FF4806404F13204BA
S11340304FF000054FF0000150E700BF90F0000F73
S113404004BF0021704730B54FF4806404F132049A
S113405010F0004548BF40424FF000013EE700BF6A
S113406042004FEAE2014FEA31014FEA02701FBFFA
S113407012F07F4393F07F4F81F06051704732F02C
S11340807F4208BF704793F07F4F04BF41F4002183
S1134090704730B54FF4607401F0004521F00041E1
S11340A01CE700BF50EA010208BF704730B54FF06B
S11340B000050AE050EA010208BF704730B511F06C
S11340C0004502D5404261EB41014FF4806404F1A4
S11340D032045FEA915C3FF4D8AE4FF003025FEA2A
S11340E0DC0C18BF03325FEADC0C18BF033202EBAE
S11340F0DC02C2F1200300FA03FC20FA02F001FA08
S113410003FE40EA0E0021FA02F11444BDE600BFAA
S113411070B54FF0FF0C4CF4E06C1CEA11541DBF59
S11341201CEA135594EA0C0F95EA0C0F00F0DEF824
S11341302C4481EA030621EA4C5123EA4C5350EA09
S1134140013518BF52EA033541F4801143F480135A
S113415038D0A0FB02CE4FF00005E1FB02E506F0EB
S11341600042E0FB03E54FF00006E1FB03569CF040
S1134170000F18BF4EF0010EA4F1FF04B6F5007F46
S113418064F5407404D25FEA4E0E6D4146EB0606B8
S113419042EAC62141EA55514FEAC52040EA5E5041
S11341A04FEACE2EB4F1FD0C88BFBCF5E06F1ED8EB
S11341B0BEF1004F08BF5FEA500E50F1000041EB22
S11341C0045170BD06F0004646EA010140EA0200CF
S11341D081EA0301B4EB5C04C2BFD4EB0C0541EAF1
S11341E0045170BD41F480114FF0000E013C00F306
S11341F0AB8014F1360FDEBF002001F0004170BD2A
S1134200C4F10004203C35DA0C341BDC04F1140442
S1134210C4F1200500FA05F320FA04F001FA05F2CE
S113422040EA020001F0004221F0004110EBD3709B
S113423021FA04F642EB06015EEA430E08BF20EAC7
S1134240D37070BDC4F10C04C4F1200500FA04F36A
S113425020FA05F001FA04F240EA020001F00041FC
S113426010EBD37041F100015EEA430E08BF20EA6F
S1134270D37070BDC4F1200500FA05F24EEA020EB7
S113428020FA04F301FA05F243EA020321FA04F0E6
S113429001F0004121FA04F220EA020000EBD3709D
S11342A05EEA430E08BF20EAD37070BD94F0000F9D
S11342B00FD101F00046400041EB010111F4801FD1
S11342C008BF013CF7D041EA060195F0000F18BF82
S11342D0704703F00046520043EB030313F4801FBE
S11342E008BF013DF7D043EA0603704794EA0C0F78
S11342F00CEA135518BF95EA0C0F0CD050EA41068E
S113430018BF52EA4306D1D181EA030101F000410A
S11343104FF0000070BD50EA410606BF1046194632
S113432052EA430619D094EA0C0F02D150EA01363E
S113433013D195EA0C0F05D152EA03361CBF10467F
S113434019460AD181EA030101F0004141F0FE411E
S113435041F470014FF0000070BD41F0FE4141F4A2
S1134360780170BD70B54FF0FF0C4CF4E06C1CEAA2
S113437011541DBF1CEA135594EA0C0F95EA0C0F57
S113438000F0A7F8A4EB050481EA030E52EA033512
S11343904FEA013100F088804FEA03334FF0805533
S11343A045EA131343EA12634FEA022245EA111560
S11343B045EA10654FEA00260EF000419D4208BF11
S11343C0964244F1FD0404F5407402D25B084FEABE
S11343D03202B61A65EB03055B084FEA32024FF46A
S11343E080104FF4002CB6EB020E75EB030E22BFC7
S11343F0B61A754640EA0C005B084FEA3202B6EB87
S1134400020E75EB030E22BFB61A754640EA5C0035
S11344105B084FEA3202B6EB020E75EB030E22BFC5
S1134420B61A754640EA9C005B084FEA3202B6EBC6
S1134430020E75EB030E22BFB61A754640EADC0085
S113444055EA060E18D04FEA051545EA16754FEAE7
S113445006164FEAC30343EA52734FEAC2025FEA05
S11344601C1CC0D111F4801F0BD141EA00014FF094
S113447000004FF0004CB6E711F4801F04BF014365
S11344800020B4F1FD0C88BFBCF5E06F3FF6AFAE81
S1134490B5EB030C04BFB6EB020C5FEA500C50F111
S11344A0000041EB045170BD0EF0004E4EEA113194
S11344B014EB5C04C2BFD4EB0C0541EA045170BD9B
S11344C041F480114FF0000E013C90E645EA060EDF
S11344D08DE60CEA135594EA0C0F08BF95EA0C0F0D
S11344E03FF43BAF94EA0C0F0AD150EA01347FF455
S11344F034AF95EA0C0F7FF425AF104619462CE72C
S113450095EA0C0F06D152EA03353FF4FDAE10468E
S1134510194622E750EA410618BF52EA43067FF4DF
S1134520C5AE50EA41047FF40DAF52EA43057FF46F
S1134530EBAE12E74FF0FF3C06E000BF4FF0010C7A
S113454002E000BF4FF0010C4DF804CD4FEA410CDE
S11345507FEA6C5C4FEA430C18BF7FEA6C5C1BD0AB
S113456001B050EA410C0CBF52EA430C91EA030F2C
S113457002BF90EA020F0020704710F1000F91EA89
S1134580030F58BF994208BF90422CBFD8176FEA57
S1134590E37040F0010070474FEA410C7FEA6C5C25
S11345A002D150EA013C07D14FEA430C7FEA6C5C2C
S11345B0D6D152EA033CD3D05DF8040B704700BF58
S11345C08446104662468C461946634600E000BFA6
S11345D001B5FFF7B7FF002848BF10F1000F01BD78
S11345E04DF808EDFFF7F4FF0CBF012000205DF843
S11345F008FB00BF4DF808EDFFF7EAFF34BF0120C8
S113460000205DF808FB00BF4DF808EDFFF7E0FF60
S113461094BF012000205DF808FB00BF4DF808EDB1
S1134620FFF7CEFF94BF012000205DF808FB00BF18
S11346304DF808EDFFF7C4FF34BF012000205DF8FA
S113464008FB00BF4FEA410212F5001215D211D542
S11346506FF47873B3EB625212D94FEAC12343F07B
S1134660004343EA505311F0004F23FA02F018BFFD
S1134670404270474FF00000704750EA013005D1C6
S113468011F0004008BF6FF0004070474FF0000089
S1134690704700BF4A0011D212F5001211D20DD595
S11346A06FF47873B3EB62520ED44FEAC12343F034
S11346B0004343EA505323FA02F070474FF00000DE
S11346C0704750EA013002D14FF0FF3070474FF08D
S11346D00000704753B94AB9002908BF00281CBF1D
S11346E04FF0FF314FF0FF3000F06AB9ADF1080C24
S11346F06DE904CE00F006F8DDF804E0DDE90223FC
S113470004B070472DE9F047089D0C46002B4ED1AC
S113471094468C458646B2FA82F262D94AB1C2F115
S11347202003914020FA03F30CFA02FC194300FA27
S113473002FE4FEA1C471FFA8CF6B1FBF7F44FEA6E
S11347401E4307FB141143EA014304FB06F199429B
S11347500AD91CEB030304F1FF3080F01381994262
S113476040F21081023C6344591A1FFA8EF3B1FBE4
S1134770F7F007FB101143EA014300FB06F69E42E3
S11347800AD91CEB030300F1FF3180F0FD809E4247
S113479040F2FA80634402389B1B40EA0440002143
S11347A01DB1D3400022C5E90032BDE8F0878B4239
S11347B005D90DB1C5E9000100210846F5E7B3FAB2
S11347C083F1002946D1A34202D39042C0F0F18084
S11347D0861A64EB03030120002DE6D0C5E90063CB
S11347E0E3E7002A40F09180A1EB0C044FEA1C4857
S11347F01FFA8CF70121B4FBF8F64FEA1E4308FBBD
S1134800164443EA044307FB06F0984208D91CEB1C
S1134810030306F1FF3402D2984200F2CE8026460A
S11348201C1A1FFA8EF3B4FBF8F008FB104443EA99
S1134830044300FB07F79F4208D91CEB030300F174
S1134840FF3402D29F4200F2B1802046DB1B40EAD3
S11348500640A5E7C1F120068B4022FA06F71F4364
S113486020FA06FC04FA01F343EA0C03F44000FACC
S113487001F8380C4FEA1349B4FBF0FE1FFA87FC29
S113488000FB1E4449EA04440EFB0CF9A14502FA5C
S113489001F20AD93C190EF1FF3A80F08580A14556
S11348A040F28280AEF1020E3C44A4EB09041FFAEC
S11348B083F9B4FBF0F300FB134449EA044403FB1B
S11348C00CFCA44507D93C1903F1FF3068D2A44578
S11348D066D9023B3C4443EA0E40A0FB0293A4EB9E
S11348E00C049C42CE469C4652D34FD055B1B8EBF3
S11348F00E0364EB0C0404FA06F6CB40CC401E43D2
S1134900C5E900640021BDE8F087C2F1200320FA64
S113491003F10CFA02FC24FA03F394400C434FEA2B
S11349201C4800FA02FE1FFA8CF7B3FBF8F008FBF0
S11349301031230C43EA014300FB07F1994208D9E3
S11349401CEB030300F1FF362CD299422AD902381A
S113495063445B1AA4B2B3FBF8F108FB113344EAD5
S1134960034401FB07F3A34208D91CEB040401F13F
S1134970FF3613D2A34211D902396444E41A41EA3E
S1134980004138E70446EFE6084605E7C845ADD2DE
S1134990B9EB020E63EB070C0138A7E73146EDE7EC
S11349A0034698E73046D4E7D6467EE763440238A8
S11349B04CE70646234608460EE7023E63442FE7CB
S11349C0704700BF08B5064B044613B10021AFF38E
S11349D00080044B1B6803B19847204600F0A1FBFC
S11349E00000000014160020002310B50446C0E99E
S11349F00033C0E90433836081814366C2818361EB
S1134A00194608225C3000F004FE0D4B63620D4B26
S1134A10A3620D4BE3620D4B23630D4B24629C4256
S1134A2006D003F16802944202D0D0339C4205D1EF
S1134A3004F15800BDE8104000F0F3BD10BD00BF04
S1134A408D550000AF550000E75500000B560000DF
S1134A50DC140020024A0349034800F079BD00BF7A
S1134A6038100020315700004810002041680C4BDA
S1134A70994210B5044601D000F05AFEA168094BD2
S1134A80994202D0204600F053FEE168064B994259
S1134A9004D02046BDE8104000F04ABE10BD00BF5F
S1134AA0DC14002044150020AC15002010B50B4B7D
S1134AB00B4C0C4A1A60204600220421FFF794FF95
S1134AC004F1680001220921FFF78EFF04F1D000F0
S1134AD00222BDE810401221FFF786BF1416002001
S1134AE0DC140020554A0000014800F09BBD00BFC3
S1134AF036160020014800F096BD00BF361600208F
S1134B0010B50446FFF7F0FF236A1BB1BDE810405F
S1134B10FFF7F0BF044B2362044B1B68002BF5D155
S1134B20FFF7C4FFF2E700BF6D4A0000141600202F
S1134B302DE9F7431D46574B1F6804460E46904621
S1134B4027B13B6A13B93846FFF7DAFFB8F1020F11
S1134B5006D0B8F1010F00F29A80002DC0F29780C0
S1134B60636ED90705D4A3899A0502D4A06D00F019
S1134B7059FD2146384600F0DBFD616B41B104F17B
S1134B804403994202D0384600F0F0F800236363EE
S1134B900023A3616360A3891B0603D521693846FA
S1134BA000F0E4F8A38923F44A6323F00303B8F183
S1134BB0020FA38161D001AB6A462146384600F05A
S1134BC0DFFDA3891843A0812DBB009D284600F07A
S1134BD017F90646002852D1DDF80090A94540D1C6
S1134BE04FF0FF35B4F90C3043F00202A2810022E9
S1134BF0A26004F147022260226101226261626EB6
S1134C00D60704D4980502D4A06D00F00CFD284604
S1134C1003B0BDE8F083002ED8D03B6A13B9384600
S1134C20FFF76EFFB8F1010F08BFA389266004BF28
S1134C3043F00103A381B4F90C3013F00802C4E972
S1134C4004651ED0D90741BF00226D42A260A56150
S1134C5058BFA560626ED20701D49B0513D5002509
S1134C60D5E7484600F0CCF806460028B8D0A3891A
S1134C7043F08003A3814D46CFE70025B2E7A94660
S1134C80F5E7A260E6E7A06D00F0CDFCE7E74FF0A2
S1134C90FF35BCE74410002038B5064D0023044618
S1134CA008462B6000F03BFA431C02D12B6803B189
S1134CB0236038BD1816002038B5074D0446084651
S1134CC0114600222A601A4600F031FA431C02D130
S1134CD02B6803B1236038BD1816002038B5074D82
S1134CE004460846114600222A601A4600F021FABA
S1134CF0431C02D12B6803B1236038BD1816002071
S1134D0038B5074D04460846114600222A601A4663
S1134D10FEF7EAF9431C02D12B6803B1236038BDC6
S1134D201816002070B50D4D0D4C641BA410002600
S1134D30A64209D10B4D0C4C00F052FD641BA4108B
S1134D400026A64205D170BD55F8043B98470136AC
S1134D50EEE755F8043B98470136F2E79810002037
S1134D6098100020981000209C10002038B50546AB
S1134D70002941D051F8043C0C1F002BB8BFE418A3
S1134D8000F0E0F81D4A136833B9636014602846E4
S1134D90BDE8384000F0DCB8A34208D920682118E7
S1134DA08B4201BF19685B6809182160EDE71A4658
S1134DB05B680BB1A342FAD911685018A0420BD119
S1134DC020680144501883421160E0D118685B6880
S1134DD0536008441060DAE702D90C232B60D6E74D
S1134DE0206821188B4204BF19685B68636004BFA4
S1134DF0091821605460CAE738BD00BF201600209E
S1134E00024B0146186800F025B800BF441000208A
S1134E1070B50F4E0C463168054611B900F0B0F874
S1134E2030602146284600F0ABF8431C03D14FF014
S1134E30FF34204670BDC41C24F00304A042F8D003
S1134E40211A284600F09CF80130F2D1EFE700BFA8
S1134E501C1600202DE9F041CD1C25F00305083572
S1134E600C2D38BF0C25002D064601DBA94204D9C0
S1134E700C2333600020BDE8F081314F00F062F86C
S1134E803B681C4644BB29463046FFF7C1FF431C20
S1134E90044650D13C682146002941D1002C44D01D
S1134EA02368304604EB030800F06AF880453CD1DF
S1134EB021686D1A29463046FFF7AAFF013034D025
S1134EC023682B4423603B68002B36D05A68A242E7
S1134ED029D100225A600EE02268521B1DD40B2AED
S1134EE016D96119A342256018BF5960636808BFC9
S1134EF0396062514B60304600F02AF804F10B002F
S1134F00231D20F00700C21AB5D01B1AA350B2E724
S1134F10A3426268DED13A60EDE723466468B1E7F4
S1134F200C464968B8E71346CEE70C233360304695
S1134F3000F00EF89EE70560DDE75B60FFDE00BF72
S1134F4020160020014800F06DBB00BF351600207C
S1134F50014800F068BB00BF3516002038B5074D86
S1134F6000230446084611462B6000F0DBF8431C7E
S1134F7002D12B6803B1236038BD00BF181600208E
S1134F8038B5064D0023044608462B60FBF786FD22
S1134F90431C02D12B6803B1236038BD18160020CE
S1134FA008B5FBF78BFDFCF719F8BDE80840FBF7E3
S1134FB0E1BC08B5FEF788F9FEF7A6F8BDE808409D
S1134FC0FEF770B870477047704770477047704776
S1134FD0FEE74FF4004070474FF47A707047FEE7E5
S1134FE04FF060420123D2F8001E83400B43C2F805
S1134FF0003E0020704710B588B00C460E9907910A
S11350000D9906919DF8301005910B9904919DF826
S1135010281003910021CDE9013100922346024674
S11350200846FBF7D3FD08B010BD10B588B00446A0
S11350300E9807900D9806909DF8300005900B98F7
S113504004909DF8280003900020CDE901300092DF
S11350500B4622460121FBF7B9FD08B010BD08B587
S1135060FCF738FD013008BDEFF3108072B67047CD
S113507000B962B67047EFF31180602383F311889F
S1135080704780F31188704700230360C360836016
S1135090704770B505460E461446FFF7E5FF2B68CA
S11350A05C4034405C402C60BDE87040FFF7E0BFDA
S11350B013B502230024684600948DF804408DF84B
S11350C00530FDF787F9204602B010BD70B50C46D7
S11350D0154610B9FDF7DAFF38B143682BB12A46FB
S11350E021460068BDE870401847232070BDF7B51D
S11350F00D4616461C4648B103B901AC87685FB13A
S11351002346324629460068B84706E0FDF7BEFF4D
S113511004B901AC0028F1D1232003B0F0BD002074
S11351207047FEE74FF400534B60002070470020A7
S1135130704707B5002001AB0190FFF7D8FF019835
S1135140002808BF4FF0FF3003B05DF804FB2DE9E1
S1135150F84F02F104089DF828B00F4615461E4684
S113516002F109094FEA132A00245FFA88F84C4532
S113517002D30020BDE8F88F052C12D8DFE804F034
S11351801E09030B0D0FD1210820FBF7FDFC013490
S1135190EDE74146F8E7F1B2F6E75146F4E7594640
S11351A0F2E7AB1DA3420BD0EB1DA34208D005F1DF
S11351B00803A34206D0BB1F195DE5E75B21E3E7C3
S11351C05A21E1E75D21DFE7F0B587B01F460023F0
S11351D00D4616468DF817300446A8B1C3610DF18B
S11351E01701FEF7DBF89DF817207AB9BDF83430C3
S11351F002939DF830302946CDE9007320463346AA
S1135200FEF702F807B0F0BD2220FBE70320F9E720
S11352100020704708B5FBF76DFBFFF7C1FEFFF7F1
S1135220C8FEFFF7CFFEBDE80840FFF7CCBE08B5C7
S1135230FFF7CAFEFFF7C9FEFFF7C8FEBDE8084046
S1135240FFF7C5BE9A4238BF8854704770472DE9AE
S1135250F84F98460D9B15469A07DDE90B4906461B
S11352600F4623D02A460A9B03EB040A1444A242A5
S113527020D10D9B9B0705D5A2EB050AD14505EB73
S11352800A0420D82046BDE8F88F4346394620203A
S1135290B0470AF1010ACA450AEB0B02F5D3A9EBA0
S11352A004024C4588BF00222A44DCE7A246A5EB51
S11352B0040BF0E702F1010B1AF8010D43463946DD
S11352C0B0475A46D3E74346224639462020B047E2
S11352D00AF1010AD2E72DE9F0479E46DDE90D3CCB
S11352E01CF0020FDDE90874DDE90B659DF82880E8
S11352F01FD10CF001094BB1B9F1000F06D0B8F180
S1135300000F02D11CF00C0F00D0013B4FF0300A0B
S113531002E007F804A00134A54201D9202CF8D1F9
S1135320B9F1000F05D04FF03009A34201D9202C68
S11353301BD11CF0100F15D01CF4806F32D1C4B1F6
S1135340AC4201D09C422DD1651E12D0102E3FD10B
S11353501CF0200FA4F1020456D178263E553026C5
S11353607E556C1C202C29D00DE007F804900134E4
S1135370DBE7102E10D11CF0200F2FD178243C70C5
S113538030247C700224B8F1000F31D02D253D5516
S1135390013414E06224F2E7022EFBD030243C7086
S11353A00124F0E7102E1BD11CF0200F2AD1202C51
S11353B004D0651C78263E55202DD0D12024CDE97B
S11353C00A3CCDE908747346BDE8F047FFF73FBFD8
S11353D0022EC4D162247C550135EDE75824CEE772
S11353E0022E03D1202CE9D02546F3E72546E3E736
S11353F01CF0040F01D02B25C9E71CF0080FDED0E8
S11354002025C4E7202CD9D0651C5826D3E72DE9E4
S1135410F04391B0189D1A9F1D9E2DB926F01004DB
S113542016F4806F264622D116F0200F14BF4FF0D9
S1135430410E4FF0610EAC460DF120080025AEF18F
S11354400A0EBCFBF7F907FB19C95FFA89F4B9F135
S1135450090F94BF30347444E4B2BC4508F8014BDE
S1135460BCFBF7F405F1010501D3202D10D11C9CE0
S113547005941B9C0696CDE903749DF86440CDE920
S1135480015408AC0094FFF726FF11B0BDE8F08387
S1135490A446D6E72DE9F04F95B0DDE91E76CDE9B7
S11354A00A2357EA0603CDE90801DDE9229B269C7D
S11354B005D124F0100314F4806F1C4637D114F086
S11354C0200F14BF412361230DF1300A0025A3F1FD
S11354D00A0831464A465B463846FFF7FBF8D2B223
S11354E0092A94BF303242444F45D2B276EB0B06C0
S11354F00AF8012B05F1010501D3202D14D1259BB8
S11355000593249B0694CDE903939DF88030CDE95F
S113551001530CAB0093DDE90801DDE90A23FFF731
S1135520DAFE15B0BDE8F08F07460E46D1E7002538
S1135530E5E700F002B8FEF7D5BB704708B5FFF702
S113554069FEFFF7F6FFFFF772FEFFF7F4FFFAE7D5
S11355502DE9F8430746884614460026D4E9019508
S1135560B9F1010905D52468002CF7D13046BDE80E
S1135570F883AB89012B07D9B5F90E30013303D079
S113558029463846C04706436835E9E710B50C4656
S1135590B1F90E10FFF7A2FB0028ABBF636DA3891E
S11355A01B1823F48053ACBF6365A38110BD2DE9A0
S11355B0F0411F468B89DB0505460C46164605D58A
S11355C0B1F90E1002230022FFF776FBA389B4F988
S11355D00E1023F48053A38132463B462846BDE88F
S11355E0F041FFF78DBB10B50C46B1F90E10FFF773
S11355F063FB431CA38915BF606523F4805343F404
S11356008053A38118BFA38110BDB1F90E10FFF719
S113561043BB02440346934200D1704703F8011B85
S1135620F9E7704770477047B1F90C202DE9F04154
S1135630170705460C4656D44B68002B02DC0B6C4E
S1135640002B3DDDE66A002E3AD0002312F480528E
S11356502F68216A2B6025D0626DA389580705D570
S11356606368D21A636B0BB1236CD21A216AE66A9F
S113567000232846B047411C24D0002363602369DB
S11356802360A389DA0400D56065616B2F60B9B12A
S113569004F14403994202D02846FFF767FB002334
S11356A063630DE001232846B047461C0246D4D16B
S11356B02B68002BD1D01D2B01D0162B2BD12F60A2
S11356C000202FE02A68B4F90C3042B11D2A01D021
S11356D0162A22D10023636023692360D5E7626020
S11356E022692260CEE70F69002FE9D093070E6884
S11356F008BF4B690F6018BF0023A6EB07088B6037
S1135700B8F1000FDCDD216AA66A43463A46284612
S1135710B047002808DCB4F90C3043F04003A381FF
S11357204FF0FF30BDE8F0810744A8EB0008E7E73D
S113573038B50B6905460C4613B90025284638BD13
S113574018B1036A0BB9FFF7DBF9B4F90C30002B7D
S1135750F3D0626ED00704D4990502D4A06DFFF78C
S113576061FF28462146FFF75FFF636EDA070546AF
S1135770E4D4A3899B05E1D4A06DFFF754FFDDE7D2
S113578070B50C46B1F90E10002996B015461E46A8
S11357900DDAA38913F0800F4FF0000114BF4023EA
S11357A04FF48063002031602B6016B070BD6A46F0
S11357B0FFF7D4FB0028ECDB019901F47041A1F55B
S11357C00053594259414FF48063EBE70000000055
S11357D000000000000000000000000000000000C5
S11357E0F8B500BFF8BC08BC9E467047F8B500BFCA
S11357F0F8BC08BC9E467047000000000000000092
S11358000000000000000000000000000000000094
S11358100000000000000000000000000000000084
S113582007000003433A2F55736572732F73616D3C
S113583065742F53696D706C6963697479537475F9
S113584064696F2F53444B732F76342E342E302FCC
S1135850706C6174666F726D2F656D6472762F73F0
S113586070696472762F7372632F737069647276D1
S11358702E6300633A5C75736572735C73616D6566
S1135880745C73696D706C6963697479737475643D
S1135890696F5C73646B735C76342E342E305C7089
S11358A06C6174666F726D5C656D6C69625C696E67
S11358B0635C656D5F6770696F2E68003F0000F878
S11358C0C00F00FE0000FF0000010304050607FFEF
S11358D0FFFFFFFFFFFFFFFFFFFF050001030405BC
S11358E0060705050505050505FFFFFFFFFFFFFF8B
S11358F0FFFFFFFF0004050B0C0D0E0F0607080940
S11359000A0B090A0B0C0D0E0F0001020304050615
S1135910070001020304050B0C0D0E0F060708090E
S11359200A0B090A0B0C0D0E0F00010203040506F5
S1135930070001020304050B0C0D0E0F06070809EE
S11359400A0B090A0B0C0D0E0F00010203040506D5
S1135950070001020304050B0C0D0E0F06070809CE
S11359600A0B090A0B0C0D0E0F00010203040506B5
S1135970070000000000010101010102020202020D
S113598002030303030303030505050505050505D4
S1135990050000000000000040420F000501000067
S11359A0000000000000000000000000433A2F55F2
S11359B0736572732F73616D65742F53696D706CA9
S11359C0696369747953747564696F2F53444B73B5
S11359D02F76342E342E302F706C6174666F726D96
S11359E02F656D6C69622F7372632F656D5F636DD4
S11359F0752E630040787D0100000000005A6202A9
S1135A0000010000C0CF6A0002000000809FD500A2
S1135A1002010000002D310102020000433A2F551B
S1135A20736572732F73616D65742F53696D706C38
S1135A30696369747953747564696F2F53444B7344
S1135A402F76342E342E302F706C6174666F726D25
S1135A502F656D6C69622F7372632F656D5F636F61
S1135A6072652E6300433A2F55736572732F736109
S1135A706D65742F53696D706C69636974795374BF
S1135A807564696F2F53444B732F76342E342E3044
S1135A902F706C6174666F726D2F656D6C69622F07
S1135AA07372632F656D5F656D752E6300433A2FC6
S1135AB055736572732F73616D65742F53696D70BF
S1135AC06C696369747953747564696F2F53444BBB
S1135AD0732F76342E342E302F706C6174666F728F
S1135AE06D2F656D6C69622F7372632F656D5F67CF
S1135AF0706372632E6300433A2F55736572732F7C
S1135B0073616D65742F53696D706C696369747921
S1135B1053747564696F2F53444B732F76342E344A
S1135B202E302F706C6174666F726D2F656D6C69A9
S1135B30622F7372632F656D5F6770696F2E6300E8
S1135B403F0000F8C00F00FE0000FF00433A2F554D
S1135B50736572732F73616D65742F53696D706C07
S1135B60696369747953747564696F2F53444B7313
S1135B702F76342E342E302F706C6174666F726DF4
S1135B802F656D6C69622F7372632F656D5F6C6432
S1135B906D612E6300633A5C75736572735C736147
S1135BA06D65745C73696D706C6963697479737421
S1135BB07564696F5C73646B735C76342E342E3059
S1135BC05C706C6174666F726D5C656D6C69625C4F
S1135BD0696E635C656D5F6275732E6800433A2F6E
S1135BE055736572732F73616D65742F53696D708E
S1135BF06C696369747953747564696F2F53444B8A
S1135C00732F76342E342E302F706C6174666F725D
S1135C106D2F656D6C69622F7372632F656D5F7292
S1135C207463632E6300433A2F55736572732F7345
S1135C30616D65742F53696D706C69636974795310
S1135C40747564696F2F53444B732F76342E342E3E
S1135C50302F706C6174666F726D2F656D6C696244
S1135C602F7372632F656D5F73797374656D2E6323
S1135C7000433A2F55736572732F73616D65742FEA
S1135C8053696D706C696369747953747564696F71
S1135C902F53444B732F76342E342E302F706C6177
S1135CA074666F726D2F656D6C69622F7372632FEA
S1135CB0656D5F75736172742E63000000010807DF
S1135CC00F000A00C8002000A0000100433A2F552D
S1135CD0736572732F73616D65742F53696D706C86
