S01E00007370696472765F6D61737465725F626172656D6574616C2E73333747
S31508000000001000209D090008735C0008735C000856
S31508000010735C0008735C0008735C0008735C000876
S31508000020735C0008735C0008735C0008735C000866
S31508000030735C0008735C0008735C0008735C000856
S31508000040735C0008735C0008735C0008735C000846
S31508000050735C0008735C0008735C0008735C000836
S31508000060735C0008735C0008735C00087D03000875
S31508000070515B0008735C0008735C0008735C000839
S31508000080735C0008735C0008735C0008735C000806
S31508000090735C0008D9100008735C0008735C0008DC
S315080000A0735C0008735C0008735C0008735C0008E6
S315080000B0735C0008735C0008735C0008735C0008D6
S315080000C0735C0008735C0008735C0008735C0008C6
S315080000D0735C0008735C0008735C0008735C0008B6
S315080000E0735C0008735C0008735C0008735C0008A6
S315080000F0735C0008735C0008735C0008735C000896
S31508000100735C0008735C0008735C0008735C000885
S31508000110735C0008735C0008735C0008735C000875
S31508000120735C0008735C0008735C0008735C000865
S31508000130735C0008735C0008735C0008735C000855
S31508000140735C0008735C0008735C0008FD610008B6
S31508000150735C0008735C0008735C0008735C000835
S31508000160735C0008735C0008735C0008735C000825
S31508000170013800D0FCE770470348044B834202D09D
S31508000180034B03B1184770471416002014160020B5
S3150800019000000000064B0749C91A891048BF0131FB
S315080001A0491003D0044B0BB101481847704700BFEC
S315080001B014160020141600200000000010B5064C86
S315080001C0237843B9FFF7D8FF044B13B10448AFF3BC
S315080001D000800123237010BDDE13002000000000FC
S315080001E03472000808B5054B1BB105490548AFF33D
S315080001F00080BDE80840FFF7CDBF00BF0000000043
S315080002000010002034720008A3F5803A704700BF3A
S31508000210174B002B08BF134B9D46FFF7F5FF002130
S315080002208B460F461348144A121A06F07AF80E4BF4
S31508000230002B00D098470D4B002B00D09847002084
S31508000240002104000D000D48002802D00C48AFF329
S31508000250008004F0F5FF2000290005F098FC04F062
S31508000260A9FD00BF00000800000000000000000013
S3150800027000100020001000206C150020000000006F
S315080002800000000007B501A803F086FA9DF80530BE
S31508000290012B14D19DF804308BB94FF48012104B02
S315080002A01049586E03F580535A664B6B23F0E0539A
S315080002B043F040634B63C3025CBF0B4B5A6605F0C1
S315080002C0A9FE00F0B7FA05F0A3FE03F01FFD05F03E
S315080002D032FE03F031FD03B05DF804EB00F09EBA80
S315080002E0008000500040005A00A0005030B51D4D57
S315080002F08FB006AC0FCD0FC495E80F0084E80F0049
S315080003000E2200210DF10A0006F00BF84FF47022B8
S31508000310154B6946CDE900230B238DF808300C23CD
S315080003208DF80930114B12480393202304930123B7
S3150800033006AA8DF815300F4B03F096FD044618B142
S31508000340A4210D4805F0A9FC9DF816304FF4E130BC
S31508000350002B0CBF0321002105F07CFC20460FB0C2
S3150800036030BD00BF086800083C00015BDF130020B1
S315080003706410002018100020D8670008014805F00E
S31508000380D6BE00BF64100020024B0349186800F06F
S315080003907DBF00BF901500207015002030B585B0D0
S315080003A06C460121232001F093FC094B094D0FCB24
S315080003B084E80F004FF0FF3321462846019302F0E8
S315080003C0E5FF0123044AEB60536005B030BD00BF6A
S315080003D028680008008008500090085008B50648AC
S315080003E005F08AFD0122054B00215A602320BDE84D
S315080003F0084001F06DBC00BF0080085000A00850FE
S3150800040010B50446FFF7CAFF034B1C625C6AFFF788
S31508000410E5FFE04310BD00BF0080085011B9012276
S31508000420014B1A70704700BFFF13002000230146D6
S31508000430F0B5434D04462B7011F8233B87B0012BCA
S3150800044066D1404A13684048C4F823305368E61C0E
S315080004504B60936832468B603C4B009300682023C0
S3150800046001F0AEF818B15C21394805F016FC2B7876
S31508000470002BFCD02378042B44D13146354804F0B0
S31508000480D3FD0023A51C2A46CDE90333ADF8143065
S3150800049012F8011F3E2903D00133DBB2202BF7D116
S315080004A003AA17460633DBB21F2B3ADD0A220021C0
S315080004B0384604F003FD00230646CDE90333ADF8BC
S315080004C0143015F8012F3E2A03D00133DBB2202B56
S315080004D0F7D16FF001053946E21D2D1BA818984281
S315080004E026DB0A220021384604F0E8FCC0B2FFF7F2
S315080004F087FF194A194B0146B04218BF1A461848D1
S3150800050004F092FD204605F039FB002007B0F0BD47
S31508000510022B01D1134A95E7032B0CBF124A134A43
S3150800052090E7F15C3E29C1D002F8011B0133BBE715
S3150800053012F8010F3E28D4D001F8010BCEE700BF10
S31508000540FF130020BA680008901500201D04000853
S315080005504368000868680008386800083D680008AD
S315080005606D680008AD680008A06800088E68000875
S31508000570002370B5204C1946206892B00222806884
S3150800058004F064FD0023206802221946406804F03E
S315080005905DFD01AA1546194B03F11806144618689D
S315080005A05968083303C4B3422246F7D11B88192277
S315080005B02380134C2946206805F037FD206803F090
S315080005C03BFC08AA15460F4B03F12006144618688B
S315080005D05968083303C4B3422246F7D118689B8882
S315080005E0252229462060A380002005F01EFD064826
S315080005F004F01AFD12B070BDB41500201169000888
S315080006006C1500202B690008C76800082DE9F04F13
S31508000610754C85B0237823B1744804F005FD002392
S31508000620237004F0F9FC43B2002B40F3B680704AFD
S315080006300D2B157802D00A2B40F0CD806D4B18781B
S31508000640002800F0A48001216B4B0B2219700821A9
S3150800065083F8451083F88810032102269A70002231
S3150800066083F88610042183F8436094461746164695
S3150800067083F8CB1083F8C9106049DFF898E10D4478
S31508000680DFF88C81DFF88491DFF878A15A7083F857
S31508000690442083F8872083F8CA208DF80F20019517
S315080006A0019D8D420DD11AB10122227083F8CA200C
S315080006B0BCF1000F02D0012283F88720002F3ED11B
S315080006C040E019F8015B1AF801BB5D450CD10646F6
S315080006D09DF80F500135EDB28DF80F5001310EF12E
S315080006E0010E08F10108DBE798F800B0AB4507D121
S315080006F09DF80F5007460135EDB28DF80F50EDE71E
S315080007009EF800B0AB4507D19DF80F5084460135D9
S31508000710EDB28DF80F50E1E791F800B0AB4520D067
S3150800072022B10123344A237082F8CA30BCF1000F83
S3150800073003D00122304B83F887201FB12E4B0122AC
S3150800074083F8442016B101222B4B5A709DF80F20CE
S31508000750082AD3B224D00B2B0BD0042B37D1284828
S3150800076010E09DF80F200132D2B28DF80F20024614
S31508000770B4E7214C6378012B06D12249224804F0BC
S3150800078053FC2046FFF752FE00221A4B1A7000222D
S31508000790174B1E48197842541A7005B0BDE8F08FF9
S315080007A0154C94F84430012B06D11949164804F023
S315080007B03BFC04F14300E5E794F88730012BE3D1CD
S315080007C01449114804F030FC04F18600DAE71248AF
S315080007D004F02AFCD8E74E2DDFD80C4B58550135C6
S315080007E01570044B0122D7E7081600205169000846
S315080007F00014002001140020521400206F6900081C
S315080008001B15002086690008566900080214002096
S315080008107D690008746900085B69000808B5044822
S3150800082005F090FB05F076F9BDE8084000F018B829
S31508000830006E0008014805F085BB00BF006E000881
S315080008401022024BC3F8A020704700BF00D0035007
S315080008501022024BC3F8A020704700BF00E00350E7
S31508000860F0B5404D89B001AC0FCD0FC495E807002F
S3150800087084E8070001243C4F3C4805F063FB3C4EE6
S31508000880384605F05FFB3B4B304601A903938DF8CC
S31508000890124002F0E3FF234621460422022002F01A
S315080008A0EFFD022122460846002302F0E9FD234611
S315080008B004220321022002F0E3FD04222346114606
S315080008C0022002F0DDFD2C4D2C4B4FF44870C5F884
S315080008D034374FF00213C5F83037A3F58033C5F81F
S315080008E038371C23C5F8203704F0A8F81420FFF77A
S315080008F0AFFF04F0A3F82320FFF7A2FF04F09EF849
S31508000900B9213046FFF7A4FF05F00BFBFFF798FF68
S31508000910002321461A46022002F0B2FD00230221D6
S315080009201A46084602F0ACFD23460022032102209F
S3150800093002F0A6FD234600220421022002F0A0FDB3
S31508000940304602F05FFF00233846C5F83437C5F84D
S315080009503037C5F83837C5F8203705F0F6FA09B044
S31508000960F0BD00BF94690008F86D0008006E000825
S3150800097000C0055000127A0000C0035002000300B0
S315080009800348044A0449121A921005F073B900BFC5
S3150800099070010008700100086C15002008B500F009
S315080009A02FF8FFF7EDFF124B12498B4212D30020A6
S315080009B0114B12498B4218D3FFF72AFC186850F8D6
S315080009C02240586840F82240013298688242F5D39E
S315080009D00C33EAE70022F8E71C6844F822000132E3
S315080009E05C68A242F8D30833E4E70022F8E700BFC0
S315080009F03C720008487200084872000848720008ED
S31508000A004FF48041124B134A70B59A60D3F8882088
S31508000A10114D42F47002C3F88820104A05F50054B7
S31508000A2091664FF0FF3222660D4A62660222C3F8CB
S31508000A30D020BFF34F8FBFF36F8F4FF4403600209F
S31508000A4003F0C4F90020E66003F0A6F92E6170BD34
S31508000A5000ED00E00000000800800044009000500F
S31508000A60F7FF3700014B1868704700BF981500203C
S31508000A70014B1860704700BF98150020084B1B6F84
S31508000A8003F00703022B04D0032B05D0012B05D056
S31508000A90FEE7044B18687047034BFBE703487047AB
S31508000AA00080005098150020A0150020002D310167
S31508000AB008B5FFF7E3FF054B1B6FC3F30333013399
S31508000AC0B0FBF3F0024B186008BD00BF0080005071
S31508000AD0941500200048704700B4C404014B1868F8
S31508000AE0704700BFA0150020054B1860054B1B6F0B
S31508000AF003F00703032B01D1FFF7DABF704700BFE6
S31508000B00A01500200080005000487047002D3101D4
S31508000B104FF0B4439868C0F304400C280AD8DFE8BD
S31508000B2000F00B0909090909072119091B1D1F00EE
S31508000B300F487047002070479B6803F04073B3F175
S31508000B40807F11D0B3F1007F10D00A4A002B08BF6E
S31508000B501046704708487047084870470848704765
S31508000B60084870470848704708487047084870475B
S31508000B70405DC60000093D00C0EA210180BA8C012B
S31508000B800048E801005A62020024F40080841E002E
S31508000B9040420F00014B1868704700BF9C150020A3
S31508000BA013B500242948019405F0CCF90123042241
S31508000BB00321204602F064FC204605F0B1F9012223
S31508000BC0234B0520C3F8442401A905F0B6F90028EB
S31508000BD039D1204BD3F8F02042F00102C3F8F020B7
S31508000BE0D3F8FC2042F08072C3F8FC201A4AA3F519
S31508000BF05D431A60019B194A03F5D52303F2FC43AA
S31508000C00B3FBF2F3164A013B13610223C2F8F03034
S31508000C104FF48073C2F804334FF06043114AC3F8A7
S31508000C20B02F114AC3F8802ED3F8002E42F48072F2
S31508000C30C3F8002EFF2283F82020D3F8002E22F4D2
S31508000C408072C3F8002E02B010BD00BF006E000807
S31508000C5000D0035000ED00E0FF030040F8590D00F6
S31508000C60000004E055CEACC5090001004FF0604312
S31508000C70D3F8802E30B5D20715D501240B4D844004
S31508000C80D5F8FC2042F08072C5F8FC20D3F8002E77
S31508000C902243C3F8002E53F82020002AF0D003F888
S31508000CA02010002030BD1120FCE700BF00ED00E059
S31508000CB02DE9F04F9A46564B85B01B7806460F46E7
S31508000CC01546DDF83C909DF844B0DDF85080002BC1
S31508000CD000F09780072A00F296800E9B002B00F002
S31508000CE09280B9F1000F00F08E80129BB3F5006F69
S31508000CF000F38980012803D1109B002B00F0838024
S31508000D00444B03EB05131B7B002B7ED0424C102271
S31508000D100021684605F005FB04EB45141022A7BB25
S31508000D203946204605F0FDFA43F210036380BBF10D
S31508000D30000F03D1E37843F00303E370364A0E9BB2
S31508000D4002EB451CCCE90193129B6901581E9DF8DC
S31508000D504C30C0F30A0003F003039B0643EA001E67
S31508000D6053582E48012E00EA03004EEA0003CDF838
S31508000D7000A0535017D0B8F1000F2ED19CF80230BE
S31508000D8068F304138CF8023027E00021204605F0AA
S31508000D90C8FA4FF444736380BBF1000FCED1E378F1
S31508000DA043F03003C9E713230CF1100ECCF80C30CE
S31508000DB09CE80F008EE80F006FF00301DCF81C209A
S31508000DC0109B61F39F02012FCCF81C20CCF814303D
S31508000DD003D1CCF81890CCF8043000270D4A290125
S31508000DE002EB051342F80180159A28465A606946AF
S31508000DF022469F605E7302F00BFC384605B0BDE8DC
S31508000E00F08F0748FAE70748F8E70748F6E700BF0C
S31508000E105E15002000120020001100200F80FFF34D
S31508000E20028000F0018000F0078000F038B5124B10
S31508000E3005461B78DBB1E0B104F037FF0F4A002303
S31508000E401146147B54B92B6001251A0101EB0313D3
S31508000E501D738C5004F02FFF204638BD0133082B34
S31508000E6002F11002EDD104F026FF0548F5E7054822
S31508000E70F3E70548F1E700BF5E15002000120020E1
S31508000E80048000F0028000F0018000F038B504F01C
S31508000E900CFF002305460B4A147B6CB90133082B5B
S31508000EA002F11002F8D102F035FB074B28461C70F8
S31508000EB004F001FF204603E0284604F0FCFE034840
S31508000EC038BD00BF001200205E150020058000F026
S31508000ED00D4B10B51B78044693B1072812D804F0B9
S31508000EE0E4FE0A4B03EB04131A7B2AB100241C7395
S31508000EF004F0E1FE204610BD04F0DDFE0448FAE7E2
S31508000F000448F8E70448F6E75E15002000120020BA
S31508000F10068000F0028000F0018000F0154B13B542
S31508000F201868002301908DF8043004F0BEFE124BB9
S31508000F301C7824B104F0BFFE104802B010BD01228F
S31508000F401A7004F0B8FE0E4B01A81C731C7783F8C0
S31508000F502C4083F83C4083F84C4083F85C4083F887
S31508000F606C4083F87C4008238DF8073002F008FBB4
S31508000F702046E2E7B06900085E150020038000F00D
S31508000F80001200200A4A08B512785AB107280BD869
S31508000F90084A02EB00131B7B43B1002102F0D0FA8A
S31508000FA0002008BD0448FCE70448FAE70448F8E7C7
S31508000FB05E15002000120020028000F0018000F07B
S31508000FC0078000F00A4A08B512785AB107280BD8E4
S31508000FD0084A02EB00131B7B43B1012102F0B0FA69
S31508000FE0002008BD0448FCE70448FAE70448F8E787
S31508000FF05E15002000120020028000F0018000F03B
S31508001000078000F00A4A08B5127852B107280AD8AC
S31508001010084A02EB00131B7B3BB102F07FFB002062
S3150800102008BD0548FCE70548FAE70548F8E700BFA4
S315080010305E15002000120020028000F0018000F0FA
S31508001040078000F00D4B1B7893B1072812D889B199
S315080010500B4B03EB00131B7B73B10A4B1A6D012371
S315080010608340134214BF0123002300200B707047EE
S315080010700548704705487047054870475E150020C3
S315080010800012002000000450028000F0018000F0E9
S31508001090078000F00B4A10B512780C4662B1072893
S315080010A00CD859B1084A02EB00131B7B43B102F076
S315080010B051FB2070002010BD0448FCE70448FAE7FD
S315080010C00448F8E75E15002000120020028000F0B0
S315080010D0018000F0078000F0184B2DE9F0411F6DE4
S315080010E05B6D1F4000D5FEE701260025144CDFF88E
S315080010F05880374218D02368C8F85060A3B1A16851
S31508001100284601316268A1609847637B012B0BD1A1
S3150800111050B90C4B03EB45131A7B60F341021A7363
S315080011201A7F60F341021A770135082D4FEA460601
S3150800113004F11004DDD1BDE8F08100BF00000450C1
S3150800114000120020001100200020045038B5144673
S3150800115004F0ABFD0023A36484F84C302364237F9A
S315080011600546012B03D104F1600003F0F1FA636B25
S315080011701BB100212046E26B9847284604F09BFDE8
S31508001180A36D002B03DCC721034804F086FDA36D7D
S315080011900120013BA36538BDB46900082DE9F04775
S315080011A01E46002386B080F854300E9B04464363DF
S315080011B090F85C3088469146C663002B37D14FF4C9
S315080011C0406305686B614369092B03D905F12C0354
S315080011D0443506E00BBF05F1200305F12403383535
S315080011E03C3567694FF0010A082F94BF002701278D
S315080011F0A26D0132A265124A0494CDE902720196E3
S31508001200CDF800A04A46216BA06A04F088FD0023A9
S31508001210CDE90167CDE90333CDF800A043462A4658
S31508001220E16A606A04F061FD06B0BDE8F087012B4B
S31508001230FAD1006804F0F7FD256805F13C03C7E715
S315080012404D11000838B50546B0B1B9B1B2B1B2F51D
S31508001250006F13DC04F029FD95F84C3003F0FF0409
S315080012601BB104F028FD064838BD012385F84C302B
S3150800127004F021FD2046F7E70248F5E70248F3E7C0
S31508001280032000F0012000F0022000F02DE9F041D3
S315080012900B68B34A8EB0934205460C460DF1180802
S315080012A003D0B04A934240F0C2804746AE4ECDF8CE
S315080012B014800FCE0FC796E80F00103687E80F0088
S315080012C00FCE01AF0FC7002D00F0768184220021D2
S315080012D0284605F026F82368A14A934207D0A14A72
S315080012E0934200F09280A1480EB0BDE8F0814FF419
S315080012F0702200269E489F492B600123A44685F844
S315080013005C302F1DC5E90B122865BCE80F000FC716
S315080013109CE80F0087E80F00637E012B08BF8DF855
S315080013201D30A37E23B1012B75D104238DF812300D
S31508001330227EE368012A4FF0000273D18E498DF8A8
S3150800134011208B429CBF05238DF835308B4B8C487A
S31508001350039304F0F7FD2B6D986804F0F3FD2369F9
S31508001360DA1F092ABFD8063B8DF81030237E2BB921
S31508001370E37EB3FA83F35B098DF81C300121284616
S3150800138004F0E7FC0028AFD1237A217941EA03412A
S31508001390730103F1A04202F57032C2F8AC14607A08
S315080013A0617941EA0041C2F8A414A07AA17941EA18
S315080013B00041C2F8A814E37E002B36D1E17AE3791E
S315080013C043EA0143C2F898341D232068C2F89434CE
S315080013D001A901F0D5FE04F068FC6A4B1A78002AC8
S315080013E040F0BB8001221A7004F065FC03F076F920
S315080013F0FFF794FD002105F12400FFF717FD0146CC
S31508001400002800F0D18060486EE74FF4801201266C
S315080014105E485F4970E7022B88D0032B7FF463AFE1
S31508001420062383E78DF8342091E71C23CDE746464B
S31508001430584F0FCF0FC697E8070086E80700002D1C
S3150800144000F0BA8084220021284604F06AFF236847
S31508001450514A93427FF447AF504A2E462A654FF4C5
S31508001460802227464E49C5E90B1246F8043B0FCFA2
S315080014700FC697E80F0086E80F00637E012B08BFAA
S315080014808DF82630A37E2BB1012B51D14FF4007372
S31508001490ADF82830237E3A48012B03BF00238DF888
S315080014A025304FF4E133E368089304F04BFD2B6DC8
S315080014B0986804F047FD23691A1F0C2A3FF613AFF4
S315080014C0033B414620688DF8243002F0C7F9A3692A
S315080014D023F47F0323F47F4323B92A68936843F4EC
S315080014E080339360237A2079617940EA0340637AEE
S315080014F0A27941EA0341E67EA37A42EA0342294BEE
S315080015000EBB1D26C3F82067C3F83807C3F8301783
S31508001510C3F83427E17AE27942EA0142C3F824277C
S315080015200121284604F015FC00287FF4DDAE52E7B9
S31508001530022B02D14FF48073AAE7032B7FF4D3AEB4
S315080015404FF44073A4E71C24C3F82047C3F83807B0
S31508001550C3F83017C3F83427E2E704F0ACFB47E7D3
S315080015600000015B00000A50106A0008022000F023
S31508001570306E000801000F003F4B4C0040420F0040
S31508001580006E00085F150020092000F0246E000890
S3150800159001001000446A000800C005500C6E0008DF
S315080015A00200040000C0035005F12800FFF73EFCC6
S315080015B000283FF499AE26E7004895E6012000F09A
S315080015C02DE9F3411F46037F0546012B884616463B
S315080015D011D03A46FFF736FE044640B96EB1089B6D
S315080015E03246009341463B462846FFF7D7FD20463C
S315080015F002B0BDE8F081024CF9E7024CF7E700BFFC
S31508001600082000F0022000F0044BD3F88420D2060C
S31508001610FBD4D3F88400C0F3811070470040005013
S3150800162008B5334B98424FD027D8324B984245D00D
S3150800163017D8314B98423ED00AD838B12F4B98422A
S3150800164039D041F2A6312E4804F027FB002034E0B9
S315080016502C4B98422FD02C4B9842F2D12B4B586EDC
S315080016602BE02B4B98422CD003F5371303F5D863A0
S315080016709842E6D1254B986F1FE0264B98422FD00B
S315080016800CD8254B984223D0244B984224D0244B7F
S315080016909842D6D11D4BD3F884000EE0214B9842D0
S315080016A022D003F5740303F510539842C9D1174B9A
S315080016B0D3F8980001E0154B986D08BD134B186FC9
S315080016C0FBE7124B586FF8E7104BD3F88000F4E7A6
S315080016D00E4BD3F88800F0E70C4BD3F88C00ECE7F8
S315080016E00A4BD3F89000E8E7084BD3F89400E4E7F0
S315080016F080BA8C01405DC60080841E0040420F00FF
S31508001700606A000800093D00C0CF6A000080E00F4B
S315080017100024F400007E560380D54302006CDC02E8
S315080017200048E8010090D00338B5124B0546D3F8B7
S3150800173080300C4603F00303022B0BD0032B0DD08D
S31508001740012B0FD1FFF79AF90E2305B1286004B1D2
S31508001750236038BDFFF7DCF90723F6E7FFF782F9C0
S315080017600623F2E7044841F2FF1104F096FA002333
S315080017701846EAE700800050606A000838B51A4B38
S315080017800546D3F820010C4600F00700062821D8A4
S31508001790DFE800F028040C1410181C00FFF762F9A3
S315080017A0052305B1286004B1236038BDFFF796F913
S315080017B00323F6E7FFF7ACF90723F2E7FFF7A4F9E7
S315080017C00223EEE7FFF74EF90623EAE7FFF786F965
S315080017D00423E6E7054841F27C2104F05EFA00237B
S315080017E01846DEE70123DCE700800050606A00083F
S315080017F038B5194B0546D3F828310C4603F00703CC
S31508001800013B052B20D8DFE803F003131B0F0B174A
S31508001810FFF728F9052305B1286004B1236038BD10
S31508001820FFF720F90623F6E7FFF772F90723F2E731
S31508001830FFF754F90323EEE7FFF750F90423EAE725
S31508001840FFF762F90223E6E7044841F2840104F04F
S3150800185024FA00231846DEE700800050606A000874
S31508001860F7B50027144B0197D3F88041064604F0D4
S315080018700304022C0D4614D0032C0DD0012C14D1D0
S31508001880394601A8FFF77AFF10240EB1019B336091
S3150800189005B12C6003B0F0BDFFF73AF907240190B3
S315080018A0F3E7FFF731F90190EFE741F2D131034849
S315080018B004F0F3F93C46E8E700800050606A000847
S315080018C0002337B50193194B0546D3F820320C4649
S315080018D003F00703042B1FD8DFE803F025030F14D2
S315080018E01900002101A8FFF783FF12230DB1019A01
S315080018F02A6004B1236003B030BDFFF709F9072356
S315080019000190F3E704F0C3F90A230190EEE7FFF725
S3150800191041F909230190E9E741F24301044804F03B
S31508001920BCF90023E2E70123E0E700BF008000508E
S31508001930606A000838B5104B0546D3F840310C46A6
S3150800194003F00303022B0BD0032B0DD0012B0FD171
S3150800195004F09DF90A2305B1286004B1236038BD57
S31508001960FFF718F90923F6E704F094F90C23F2E7D0
S3150800197001230020EFE700BF00800050002337B5A1
S315080019800193184B0546D3F860320C4603F007035B
S31508001990013B032B1FD8DFE803F0020E19140021C0
S315080019A001A8FFF7EBFE10230DB1019A2A6004B1D6
S315080019B0236003B030BD002101A8FFF7BBFF112348
S315080019C0F2E7FFF7A5F807230190EDE7FFF79CF884
S315080019D002230190E8E741F2E801034804F05DF9C3
S315080019E00023E1E700800050606A0008002337B54D
S315080019F00193184B0546D3F894320C4603F00703B7
S31508001A00013B032B1FD8DFE803F0020E191400214F
S31508001A1001A8FFF7B3FE10230DB1019A2A6004B19D
S31508001A20236003B030BD002101A8FFF783FF11230F
S31508001A30F2E7FFF76DF807230190EDE7FFF764F883
S31508001A4002230190E8E741F21B11034804F025F947
S31508001A500023E1E700800050606A000873B500249F
S31508001A600F4B0194D3F87032064603F00303012B9B
S31508001A700D4607D0022B11D041F24611094804F051
S31508001A800CF904E0214601A8FFF754FF11240EB112
S31508001A90019B336005B12C6002B070BD1524F6E7D2
S31508001AA000800050606A000838B5164B0546D3F822
S31508001AB000020C4600F00700042819D8DFE800F0F9
S31508001AC020030B0F130004F0E2F80A2305B128607F
S31508001AD004B1236038BDFFF75DF80923F6E704F083
S31508001AE0D9F80C23F2E7FEF7E3FF0F23800AEDE7A8
S31508001AF0054841F28F4104F0D0F800231846E5E77F
S31508001B000123E3E700800050606A000838B5164BE9
S31508001B100546D3F808020C4600F00700042819D831
S31508001B20DFE800F020030B0F130004F0B0F80A23D7
S31508001B3005B1286004B1236038BDFFF72BF80923E7
S31508001B40F6E704F0A7F80C23F2E7FEF7B1FF0F2338
S31508001B50800AEDE7054841F2C74104F09EF80023E4
S31508001B601846E5E70123E3E700800050606A0008AD
S31508001B7038B5104B0546D3F840320C4603F003033C
S31508001B80022B0BD0032B0DD0012B0FD104F07FF8BD
S31508001B900A2305B1286004B1236038BDFEF7FAFFB1
S31508001BA00923F6E704F076F80C23F2E70123002070
S31508001BB0EFE700BF0080005038B5104B0546D3F854
S31508001BC060310C4603F00303022B0BD0032B0DD018
S31508001BD0012B0FD104F05BF80A2305B1286004B184
S31508001BE0236038BDFEF7D6FF0923F6E704F052F85E
S31508001BF00C23F2E701230020EFE700BF0080005026
S31508001C00B0F5207F10B52ED009D8B0F5007F24D0C6
S31508001C1003D868B1B0F5C07F0AD000241BE0B0F540
S31508001C20607FFAD1124BD3F88040C4F3011412E056
S31508001C300F4B1C6F230B13F00E0FC4F303340AD09B
S31508001C40072C08D00F2C06D0032C04D040F286218E
S31508001C50084804F022F8601C10BD054BD3F89040E4
S31508001C60C4F30464F7E7024B1C6FC4F38024F2E75D
S31508001C7000800050606A00084FF4803238B5104B77
S31508001C8004469A6600200D46FFF7BAFF41F6713200
S31508001C900C4B6043DC69DA635A6804F4803422F436
S31508001CA040125DB90849884294BF0020012000050A
S31508001CB002435A600CB10022DA6338BD0349F2E7E1
S31508001CC00090005000000350005A6202002D3101B6
S31508001CD038B5430904460D460ED140F233310D4856
S31508001CE003F0DBFF002304F01F0485B103F58053DE
S31508001CF00122A2401A6038BD012B04D0022B04D061
S31508001D0040F24131EBE7044BEDE7044BEBE703F513
S31508001D100053EDE7606A0008648000506880005050
S31508001D20002130B5802885B00446CDE9001100F0C1
S31508001D309F8035D85E2846D85E2844D8DFE800F06C
S31508001D409E434343434343434343434343434343FA
S31508001D504343434343434343434343434343434345
S31508001D609EAB9EABBBBBBBBBBBABC550DB7450AB22
S31508001D70ABAB4343434343434343ABABAB7CE5ABDA
S31508001D8043434343434343434343434343BB9E9EE7
S31508001D909EE05050EA8B61C04343434343939E0001
S31508001DA0B0F5B06F00F0918030D8B0F5207F72D0D2
S31508001DB00FD8B0F5C07F61D0B0F5007F61D0B0F51F
S31508001DC0807F00F087804FF49361554803F065FFE4
S31508001DD051E0B0F5607F69D00DD8B0F5407FF2D1FB
S31508001DE0FEF766FE04464FF42070FFF709FFB4FBC2
S31508001DF0F0F4640858E0B0F5806F5CD0B0F5A06FD9
S31508001E00E1D100216846FFF75BFD34E0B0F5106FBD
S31508001E1076D016D8B0F5E06F77D00AD8B0F5C06F8F
S31508001E2069D0B0F5D06FCED100216846FFF73CFEE9
S31508001E3021E0B0F5F06FC6D100216846FFF7BCFE79
S31508001E4019E0B0F5406F3BD00AD8B0F5206F61D0E5
S31508001E50B0F5286FB7D100216846FFF7FFFD0AE005
S31508001E60B0F5486FAFD100216846FFF7BFFD02E025
S31508001E70FEF704FE0090009805B030BDFEF718FE88
S31508001E80F8E7FEF7FBFD05462046FFF7B9FEB5FB6A
S31508001E90F0F50095EFE7FEF70BFE04464FF42070C9
S31508001EA0FFF7AEFEB4FBF0F40094E4E701A8FFF7F1
S31508001EB03BFC019DE8E700216846FFF75FFCDAE78F
S31508001EC000216846FFF794FCD5E700216846FFF72E
S31508001ED0C7FCD0E74FF0E02302911B695B0705D5E5
S31508001EE0FEF7E6FD0290029B0093C4E703A902A849
S31508001EF0FFF720FDF7E700216846FFF71BFDBAE765
S31508001F0000216846FFF702FEB5E700216846FFF79D
S31508001F102FFEB0E700216846FFF730FDABE700BFAC
S31508001F20606A000808B58020FFF7FAFE034B98425E
S31508001F309EBF4FF48032024B1A6708BD005A6202F0
S31508001F4000A000501FB503460020B3F5807F01901E
S31508001F5000F0C28063D85D2B54D84C2B06D82D2BA5
S31508001F6046D8232B2AD840F27D51A4E04D3B102BAE
S31508001F70F9D801A252F823F0CF200008671F0008FD
S31508001F80671F0008671F000881200008671F0008F0
S31508001F90671F0008532100089F20000845200008F5
S31508001FA049210008671F0008671F0008671F000807
S31508001FB0671F0008671F00085D210008243B092BDE
S31508001FC0D1D801A252F823F0CF200008CF2000086C
S31508001FD0CF200008CF200008CF200008671F000880
S31508001FE0BF200008671F00086120000805210008B7
S31508001FF03D2B00F082803E2BB5D1002001A9FFF7CA
S31508002000B7FD60E0802BAED1574B1B6F03F007037B
S31508002010013B032B4DD8DFE803F04A47878FB3F51A
S31508002020F06F6AD021D8B3F5B06F48D00FD8B3F5A2
S31508002030607F00F0858096D3B3F5806F47D0B3F5FF
S31508002040A06F90D1002001A9FFF73AFC3BE0B3F559
S31508002050D06F57D0B3F5E06FCFD0B3F5C06F82D14C
S31508002060002001A9FFF766FC2DE0B3F5206F70D0BC
S315080020700BD8B3F5086F4AD0B3F5106F7FF473AF7A
S31508002080002001A9FFF742FD1DE0B3F5406F5BD0C4
S31508002090B3F5486F62D0B3F5286F7FF464AF0020BC
S315080020A001A9FFF7DBFC0EE0052301930BE00223F1
S315080020B0FBE740F2CA412D4803F0EFFD03E000209C
S315080020C001A9FFF7CDFB019805B05DF804FB0020D8
S315080020D001A9FFF753FBF6E74FF0E02302901B69CF
S315080020E05B0705D5FEF7E4FC0D230393039BDCE7AA
S315080020F003A902A8FFF71EFCF8E7002001A9FFF7CD
S315080021005BFDE0E7002001A9FFF7CEFCDBE7164BF5
S31508002110D3F8003103F00303022B07D0032B09D0B1
S31508002120012B0BD1FEF7DAFC0323BEE7FEF732FDDF
S315080021300923BAE703F0A9FD0823B6E70123B4E7A4
S3150800214001A9FFF7F1FABEE7002001A9FFF750FB46
S31508002150B9E7002001A9FFF711FCB4E7002001A99F
S31508002160FFF744FCAFE700BF00800050606A000834
S315080021704FF48032074B0849586E03F580535A6668
S315080021804B6A23F001034B62C3035CBF034B5A66D9
S31508002190704700BF0080005000C0075000A00050E4
S315080021A038B5036804460F2B04D940F677317C48C6
S315080021B003F073FD63680F2B04D940F67A3178482B
S315080021C003F06BFDA3680F2B04D940F67D317448E4
S315080021D003F063FD237B0F2B04D94FF43861704855
S315080021E003F05BFD637B0F2B04D940F683316C4803
S315080021F003F053FDA37B3F2B04D940F6863168488C
S3150800220003F04BFDE37B3F2B04D940F68931644844
S3150800221003F043FD2369032B04D940F68C3160484B
S3150800222003F03BFD6369032B04D940F68F315C4804
S3150800223003F033FDE369032B04D940F6923158487D
S3150800224003F02BFD8020FFF77DFE032800F0838036
S315080022504FF48012534B4FF0A0615A6645F60E02B2
S31508002260514BC3F88020514A91624FF4803102F5F0
S31508002270805291629A6DD203FCD4996D11F0804117
S31508002280FBD1D4E90002120542EA0062E07B024370
S31508002290207B42EA0042607B42EA0032A07B42EAA7
S315080022A080121A619869D4E90452120642EA8562D4
S315080022B000F000400243A07EE57E0243207E42EA0B
S315080022C00042607E42EA00229A611A6AE06922F0B8
S315080022D00F0242EA8502364D00283DD11A6294F86B
S315080022E02420996A94F82000D200294042EA401234
S315080022F00A4394F8211042EA011242F480329A62A3
S315080023002C49294A936D31EA0303FBD14FF08071BA
S31508002310264881621369A56823F4700343EA0553C6
S3150800232013614FF00043836194F822300BB9224BB6
S31508002330996294F823303BB94FF480321E4B9A6267
S31508002340194A936D5B00FCD494F825301BB1164BE3
S315080023501A4AC3F8802038BD024342F00802022810
S315080023601A6208D119614FF40852996114484FF45A
S315080023707F4103F063FD0C4994F822308A6A94F889
S3150800238020001B062A4043EA4013134394F82420EE
S3150800239043EAC20394F8232043EA02438B62D3E755
S315080023A0606A0008009000500040005A0050005A29
S315080023B0C7FFFEFE030001000060005AF1A7FFFFF9
S315080023C03440005A014B93F9000070470916002063
S315080023D0436810B5072B044604D940F6D3512A485A
S315080023E003F05BFCA368032B04D940F6D5512648B5
S315080023F003F053FC2378032B04D940F6D75122481F
S3150800240003F04BFC94F90130002B04DA40F6D9515D
S315080024101D4803F042FC4FF400011C4A63785166DC
S315080024204FF4D151022002F5B832516218494F2BA8
S3150800243048604FF0010028BF4F2301F580514860DE
S315080024401169C903FCD4217843EA01235361D4E90D
S3150800245001131B0143EA0123617B0B43217B43EAFA
S3150800246041039360E37BA17B1B0143EA4113617C33
S315080024700B43217C43EA41035360A37C13B16FF4F9
S31508002480D153536210BD00BF606A00080090005027
S3150800249000100250014B1880704700BF0616002036
S315080024A0014B1880704700BF041600204FF48002C5
S315080024B008B5184B5A660223174A5360936813F4F3
S315080024C08033FBD1012822D1FEF708FB134B984233
S315080024D015D003F5122303F5F863984213D0104B71
S315080024E000EB8002400AB3FBF0F3520A0A49CA62BB
S315080024F00B6301234B620022074B5A6008BD45F661
S315080025007A13084AF2E745F61A03074AEEE75362D2
S31508002510F1E700BF009000500040025000F0490269
S3150800252064666666D8B80500BBCF0500B0F5207F9F
S3150800253038B577D00ED8B0F5007F61D003D890B300
S31508002540B0F5C07F2FD040F21631BDE838403D487F
S3150800255003F0A3BBB0F5607FF5D13B4A4C1ED2F819
S31508002560FC5015F080751EBFD2F8FC3023F080733E
S31508002570C2F8FC30032C04D940F2F521314803F0A7
S315080025808CFB324AD2F8803023F0300343EA041336
S31508002590C2F8803035B12C4AD2F8FC3043F080734B
S315080025A0C2F8FC3038BD4C1E012C0AD9102903D8B4
S315080025B0274BCB40DB0704D440F2C921214803F05E
S315080025C06CFB03F04AFC03F056FC4FF48031214BB8
S315080025D01E4A1967136F23F4704343EA04331367DB
S315080025E0FEF766FA0446FFF70FF8C0F10201204627
S315080025F003F03BFC00F040F8BDE83840FFF792BC1A
S315080026004C1E1F2C04D940F20A310E4803F045FB34
S315080026100E4AD2F8903023F0F85343EA0463C2F81E
S315080026209030BFE74C1E012C04D94FF4447105487D
S3150800263003F033FB054A136F23F4806343EA8423CC
S315080026401367AFE7606A000800ED00E000800050FD
S31508002650100101000090005008B50121022000F089
S3150800266071F903F0FAFB03F006FC4FF48032014BD4
S315080026701A6708BD0090005008B54FF4C070FFF700
S315080026804FFBBDE808400449884294BF0121022156
S315080026904FF42070FFF74ABF80F0FA022DE9F041A7
S315080026A00546FEF7BDFF431E0333044604D940F62C
S315080026B0CF113B4803F0F1FA4FF4C022394B5A6662
S315080026C003F598335A68012A04D137494A605A688B
S315080026D09207FCD48020FFF735FC052807D103F0C4
S315080026E0BCFB03F0C8FB4FF480322E4B1A672F4B06
S315080026F024F040749D4239D02D4B9D4239D0FEF7C7
S31508002700B1F98542064603D90121284600F06EF93B
S31508002710284FFB6813F0060FFBD1D7F80880BC607A
S31508002720BB68634013F4F81F26D12846FEF7A0F9C4
S315080027308020FFF707FC052814D1FEF7B9F9A8424F
S31508002740044604D940F62821154803F0A6FAFEF7F0
S315080027505BFFC0F10201204603F087FBFFF78CFF01
S31508002760FFF7E0FBAE4213D2BDE8F08144F00074F7
S31508002770C5E744F08074C2E740F61721084803F01D
S315080027808CFA8020C7F80880FFF7DCFB052805D0FF
S31508002790BDE8F0410121002000F028B93546CCE714
S315080027A0606A00080090005000E0015040420F00A7
S315080027B080841E00000001504E4B70B598420546B5
S315080027C073D041D8A3F5B703A3F55863984265D0EB
S315080027D033D8494B494E984251D017D8002877D05C
S315080027E041F2C911464803F058FA40F67371444855
S315080027F003F053FA4FF40022404B5A663E4B9D4273
S3150800280076D000243F4A954236D05DE03D4B98424B
S3150800281027D03D4B9842E3D13C4BD3F8A040621EEB
S31508002820033224F040744CD940F67371344803F0EF
S3150800283034FA4FF400237366E4E7354B9842CFD158
S31508002840324BD3F8BC402CE0324B984231D0324B55
S31508002850984232D0314B9842C2D12C4BD3F8C8405B
S315080028601FE02A4BD3F8A040621E033224F04074BE
S31508002870DAD84FF40023736644F0807424E0234BBF
S31508002880D3F8A040621E033224F040742AD84FF4CD
S3150800289000237366234643F0007415E01B4BD3F8F8
S315080028A0B840621E154E0332BBE7184BD3F8C0403A
S315080028B0F7E7164BD3F8CC40F3E7144BD3F8D040E0
S315080028C0EFE74FF4002373664FF0B442946070BD8F
S315080028D040F673710A4803F0E0F94FF400232C46DA
S315080028E07366F1E740F67371054803F0D6F9CEE74B
S315080028F00023D0E7C0EA210140420F0000900050B3
S31508002900606A000880841E0000093D000080E00F10
S315080029100024F4000048E801005A620280BA8C01DB
S31508002920024A536B0342FCD1704700BF004009506E
S31508002930034A0179D36E23F030030B43D3667047FD
S3150800294000400050F8B50446244BD3F88420D0063E
S31508002950FBD4D3F88430C3F381139C423CD0FEF7F2
S315080029608DF8012C05460BD11D4B984204D940F22F
S31508002970B7711C4803F091F90121284603F075FA4E
S3150800298003F08CF94FF00072174B07465A6620463B
S3150800299003F08DFA4FF48063104E621E934033673E
S315080029A0736E9A0103D4D6F884309B060AD5384646
S315080029B003F078F9022C0FD12846BDE8F84000212B
S315080029C003F053BAD6F884309906E9D540F2C571B2
S315080029D0044803F062F9E3E7F8BD00BF0040005081
S315080029E0005A6202B26A00080060005010B50C4630
S315080029F008B9FEF743F8074B21461B783BB1064B4F
S31508002A00984204D80120BDE81040FFF79BBF02207A
S31508002A10F9E700BF60150020005A62024FF0004235
S31508002A2038B5244B244C5A664AF6CD33656C0146B4
S31508002A3005F00105236428BB0120FFF771FF6368D1
S31508002A40DB0715D51D4B586008461D4B226BD20770
S31508002A500CD4984208D1072415B1174B194A1A64A1
S31508002A6003F026FA204638BD0130EFE79842F2D047
S31508002A700024F1E70132236B13F0080305D08A42DC
S31508002A80F8D1E8E700220E49F5E78A42E3D020218B
S31508002A900A4A91620121A2F5805251600649084A04
S31508002AA0886A800603D49342D5D00133F8E7934267
S31508002AB0DDE700BF00900050004009500060095053
S31508002AC040420F003254FFFF4FF0004238B5164B14
S31508002AD001465A664AF6CD33144C154A656C23648A
S31508002AE043780B205B0043F00103D363FFF718FF1D
S31508002AF063688A7823F4F87343EA02136360CA7832
S31508002B004B7943EA0223A3600A798B7943EA0223C5
S31508002B1023610878FFF782FFEB0744BF054B236460
S31508002B2003F0C6F9012038BD009000500040095056
S31508002B30004000503254FFFF0F2870B5044605D9EF
S31508002B4040F65261124803F0A8F80F244FF00042ED
S31508002B50104B11495D6E03F580535A664AF6CD331C
S31508002B604E6C80200B64FFF7DBFE0B6A23F00F0325
S31508002B7023430B62F30744BF084B0B64002DA2BF27
S31508002B804FF00042064B5A6603F092F970BD00BF3B
S31508002B90B26A000800800050004009503254FFFF16
S31508002BA000A0005010B503F088F9042300F5805101
S31508002BB000F500520B6113610B6113610B61136120
S31508002BC00B611361202341F2020103610023C360F4
S31508002BD0836041614FF4A0218361836541620549A1
S31508002BE0C36103628362C36243630365D16403639B
S31508002BF010BD00BFFF3F0D0338B5174B044698427A
S31508002C000D4607D0154B984204D040F26911144876
S31508002C1003F043F825B92046BDE8384003F04DB91E
S31508002C20012204F580535A6040F6FF71204605F0EC
S31508002C300F0203F03EF9A263782103F03AF905F092
S31508002C4001036A0748BF43F00203A26C02F00302BD
S31508002C509A42FAD138BD00BF0000015B00000A5055
S31508002C60046B0008F8B505460C46164622B940F22C
S31508002C7027216B4803F011F86A4B9D4202D19CB993
S31508002C8056240DE0684B9D4247D040F22A216448FD
S31508002C9003F003F844B940F27931614802F0FDFFC8
S31508002CA02046FFF73DF80446AB68D80745D5B44239
S31508002CB004D24FF40D715A4802F0EFFFB4FBF6F454
S31508002CC06F68013CFF2C07F0010704D94FF40F7118
S31508002CD0534802F0E2FF24064FB32821284603F0A2
S31508002CE0E8F8AB6C99071CD1AB6CDA071BD4AE6C51
S31508002CF016F0020619D140F24921494802F0CDFFE3
S31508002D00284603F0DAF82B69314623F07F4323433C
S31508002D102B61BDE8F840FFF76FBF002CC4D15724DC
S31508002D20BEE70526ECE70926EAE70626E8E72B6963
S31508002D3023F07F4323432B61F8BD6B68012B04D036
S31508002D404FF41771364802F0A8FFAB6DDB07AB6886
S31508002D5048BF760003F0E003402B42D009D893B170
S31508002D60202B1AD040F29E21BDE8F8402C4802F0EC
S31508002D7094BF602B42D0802BF4D106EB4603A342C6
S31508002D8047D801230DE0B6EB141F04D94FF421717F
S31508002D90234802F082FF102303E0B6EBD40F1AD8BB
S31508002DA0082373436401B4FBF3F4204F203CB7EBCC
S31508002DB0C40F4FEAC40604D240F2A921184802F00B
S31508002DC06CFF28463E40012103F073F82E63BDE8E8
S31508002DD0F84003F06EB840F28921114802F05DFF11
S31508002DE0DEE70623B4FBF3F3B34201D30623D8E7A1
S31508002DF040F28E210A4802F050FFF7E7B6EB940F2F
S31508002E0001D80423CDE740F29321054802F045FF97
S31508002E10F7E74FF42671024802F03FFFB1E700BF1B
S31508002E20046B00080000015B00000A50F8FF7F00F1
S31508002E302DE9F0419846436804460E4617461BB1ED
S31508002E4040F6FF7103F035F82046FFF7ABFEF1892F
S31508002E50737B62690B43318A22F44C520B4322F08E
S31508002E600F0213436361A168337E327B21F08041F0
S31508002E7021F0E2011A430A4371690A43A260B26863
S31508002E801AB9A26842F00042A260F069002874D01C
S31508002E90857A027A6D04A16845EA82556C4A0A4029
S31508002EA01543828802F4C0421543427845EA8205F2
S31508002EB0427B45EAC205827B45EA0215827845EAE5
S31508002EC08225A560D0E90421E5680A4361492940BD
S31508002ED00A43817942EA8122C17942EA4122E260C3
S31508002EE002785D49012A14D1E26842F00402E260E0
S31508002EF08C4200F09180594A94420CBF01224FF04F
S31508002F00FF32520102F1A04242F2944102F57032B8
S31508002F1014E0032A7AD1E26842F00402E2608C42A5
S31508002F2078D04E4A94420CBF01224FF0FF3241F24C
S31508002F309441520102F1A04202F570320225555021
S31508002F40427A04F580518A621AB1E26842F4006254
S31508002F50E260C27A5AB1E26842F40042E2603E4A4E
S31508002F6094425BD1027B3E4902F00F024A67626ACD
S31508002F70C17B22F003020A4362623FB197F8202020
S31508002F8004F58050002A53D001220262B8F1000FDE
S31508002F9027D004F5805113B14FF400438B652E4BAF
S31508002FA0B8F822009C4298F821304ED02B4A944219
S31508002FB00DD10122112B34BF01270227294DB0F567
S31508002FC0006FAF5494BF01270227274DAF54A26D57
S31508002FD0034322F4F95222F01E021343A365012388
S31508002FE08B6505212046FFF707FEB2681AB1204611
S31508002FF07168FFF737FE20463178FFF7FDFDA36CB1
S31508003000DB4313F4405FFAD1BDE8F081023A012AA6
S3150800301085D96DE700228AE7002272E70F4A9442B3
S3150800302001BF027B0E4902F00F02C1F880209EE71D
S31508003030E16997F8222097F8215021F009012A43DF
S315080030400A4342F00102C261A0E70022B2E700BFCC
S31508003050E39BBDFFFFF9F0870000015B00000A5003
S31508003060009003506315002061150020134B70B5BE
S31508003070984205460C4606D0114B984203D070215B
S31508003080104802F00AFE1CB972210E4802F005FE2D
S31508003090237B802B03D176210A4802F0FEFD637B51
S315080030A0032B03D97921074802F0F7FD00232146AF
S315080030B02846BDE870401A46FFF7BABE0000015B15
S315080030C000000A50046B00082B4B70B59842054661
S315080030D00C4643D119B98C21284802F0DEFD56204A
S315080030E0FEF730FF0C2807D0A0F10903012B03D9FE
S315080030F0A0F11103012B3AD8637B032B03D9AD2129
S315080031001E4802F0CAFD237B802B03D0AF211B4843
S3150800311002F0C3FD6369B3F1804F03D0B1211748AC
S3150800312002F0BBFD238A23F400539BB2B3F5805FFC
S3150800313003D0B321114802F0B0FDA368013BB3F5F3
S31508003140165F03D3B5210D4802F0A7FD00232146DB
S315080031502846BDE870401A46FFF76ABE8A21074826
S3150800316002F09BFD1CB98C21044802F096FD9E21B5
S31508003170024802F092FDBFE70000015B046B0008FD
S31508003180F8B57B4B044698420E4606D0794B9842D2
S3150800319003D0E221784802F080FD1EB9E421764882
S315080031A002F07BFD727BB3687AB1744A934203D905
S315080031B0E621714802F071FD3369C3B1DB7BB3B117
S315080031C0E9216D4802F069FD11E06D4A934203D981
S315080031D0EC21694802F061FD336943B11A7F32B1C7
S315080031E0B168684A5B7F914278D9042B78D86368BE
S315080031F0356923B140F6FF71204602F05AFE204693
S31508003200FFF7D0FC2269737BB17B22F087020B4360
S31508003210134343F080032361002D63D02369297F7C
S3150800322023F0F80343EAC1132978EA7B0B4329798B
S3150800323043EA4113697A43EA011343EA8213236195
S31508003240E068D5E9053720F0F0403B4320F47020CC
S315080032500343287B697B43EA802343EAC133E3605F
S31508003260A368F07B23F00303034343F00103A36041
S315080032706B88A06803F4C0430343A360A368687916
S3150800328043EA8023A360AB79EF79606A1B013F02AA
S3150800329003F0700307F4E06720F4772020F4EE606B
S315080032A03B430343287A000300F4E0400343687F66
S315080032B0000400F47020034363626369307B23F0E3
S315080032C00F03034363616B89A36181BBC2B1284BBA
S315080032D09C4236D0274B9C4244D011E0042B86D81A
S315080032E0F3216EE7A368F27B23F00303134343F04D
S315080032F00103A3606369327B23F00F031343636101
S31508003300D6E901122046FFF7ADFC05212046FFF756
S3150800331073FC2821204602F0CCFD3378A36302F023
S31508003320C8FDA36CDB4313F4405FFAD1F8BD104B1C
S315080033309C420CD1AB7B144903F00F034B67002A60
S31508003340DED02B7C104A03F00F031367D8E7094B2E
S315080033509C42D5D1AB7B0C4903F00F03C1F88030F2
S31508003360002ACDD02B7C084A03F00F03D367C7E7A2
S315080033700000015B00000A50046B0008002D3101B3
S31508003380809698003F4B4C000090035038B51C4A75
S315080033900B68054693420C462CD0B3F5803F03D301
S315080033A04C21184802F079FC1F2123885A08D2B903
S315080033B08B4010211A0C207B0123F0B105F58050B3
S315080033C04360237AE07A9B0243EA4033607A43EA11
S315080033D04023A07A43EA00230B43AB6001B16A613C
S315080033E063682B6138BD02F0010040EA43030139E6
S315080033F05208DCE700221146DDE705F50050DFE755
S31508003400B71DC104596B0008032838B504460D4694
S3150800341005D8094B33F81030CB40DB0704D440F20B
S315080034202D41064802F039FC302301225C43044B47
S31508003430AA401A5138BD00BF546C0008AD6B00088D
S3150800344040D00350032838B504460D4605D8094B25
S3150800345033F81030CB40DB0704D440F2FE3106487F
S3150800346002F01BFC302301225C43044BAA401A518C
S3150800347038BD00BF546C0008AD6B000840E003502F
S3150800348003282DE9F04104460D461746984605D807
S315080034901D4B33F81030CB40DB0704D44FF4B07122
S315080034A01A4802F0FAFB37B129462046B8F1000F50
S315080034B020D0FFF7A9FF0F21072D04EB440688BF8C
S315080034C0A5F108034FEA0616114895BFAB009B0005
S315080034D004360C3607FA03F29940304402F011FD1F
S315080034E07FB929462046B8F1000F06D0BDE8F0415D
S315080034F0FFF78ABFFFF7A6FFDDE7BDE8F041FFF754
S31508003500A1BFBDE8F08100BF546C0008006C00083C
S3150800351030C0035010B5152000F020FC0024FF220F
S31508003520064B21465C6520209A625C60FEF7D0FB5C
S315080035302146BDE810402120FEF7CABB0000045012
S31508003540072838B504460D4603DD7721084802F0FA
S31508003550A4FB1F2C03D99121064802F09EFB064ABC
S31508003560064B002D08BF13460122A2401A6038BD3B
S315080035705C6C0008AF6C00084010045040200450F2
S3150800358010B5044618B991211F4802F086FB237826
S315080035901B0613F0604F03D092211B4802F07DFBF7
S315080035A0E3780F2B03D9A321174802F076FB0121F4
S315080035B02020FEF78DFB01212120FEF789FB012241
S315080035C0124B15205A60227812069A606178A27802
S315080035D042EA01429A61FF229A6200229A631A64B9
S315080035E04FF000425A654FF0FF3203F500531A6553
S315080035F000F0ECFB1520E17800F0F6FBBDE8104082
S31508003600152000F0C9BB00BF5C6C00080000045020
S315080036102DE9F0410126C3B2072805460C46174690
S3150800362006FA03F603DDEC21384802F036FB1CB92E
S31508003630ED21364802F031FB236823F47C1323F08E
S315080036400F031BB1F021314802F027FBA37A1B04B4
S3150800365013F47C0F04D040F209112C4802F01DFB2C
S31508003660E37A1B0513F07E6F04D040F20B1127484E
S3150800367002F013FB237B5B0513F0FE5F04D040F2D8
S315080036800D11224802F009FB214BDFF88C801E65DC
S31508003690AB00226803F1A04303F588235A60302261
S315080036A002FB0585637B27F003072B66E37AA27A7C
S315080036B01B0543EA0243227B43EA4253EB652F6725
S315080036C002F0F3FA134B5E65237A23B1D8F840303B
S315080036D03343C8F84030637A23B1D8F838303343D7
S315080036E0C8F838302279A37943EA0243084A936135
S315080036F06179E37943EA014306498B61064B5663D0
S315080037009E64BDE8F04102F0D6BA00BF5C6C0008C2
S3150800371000200450001004500000045010B5012485
S31508003720C3B2072804FA03F404DD40F297110748E8
S3150800373002F0B3FA02F0B9FA054B5A6D22EA04020E
S315080037405A659C62BDE8104002F0B5BA5C6C000888
S315080037500000045010B50124C3B2072804FA03F484
S3150800376004DD40F2B5110A4802F097FA02F09DFA14
S31508003770084BDA6A224208D15B6B9C430CBF0124D2
S31508003780002402F098FA204610BD0024F9E700BF8D
S315080037905C6C0008000004504FF48032064B5A66F1
S315080037A003F5E6239B69C3F38512827003F03F0293
S315080037B01B0B4270037070470090005070B50646A8
S315080037C00C46154622B940F28E210C4802F065FADD
S315080037D024B94FF42070FEF7A3FA04466D00013CA5
S315080037E0B4FBF5F4064B250213EA042304D040F291
S315080037F0B321024802F051FAF56170BD016D000867
S31508003800070080FF124B10B59842044604D040F2D8
S315080038104241104802F041FA012104F580535960EB
S3150800382040F6AA6341F20502636100230A48A360D1
S31508003830E365E26004F500522361E361E3649064A2
S315080038400348A365844204BF23656365516010BDC0
S3150800385000C00550016D0008FFFF010038B5294B6F
S31508003860044698420D4604D040F26931264802F0D3
S3150800387014FA2046FFF7C6FF012204F580535A6062
S315080038802B8AA26843F001031343AA7B43EA8223E7
S31508003890A360A3682A7D43EA4273A360AB7C5BB14D
S315080038A0184B9C4202BFEA7CA3F51033C3F8C82123
S315080038B0E36D43F08003E3652B7B2046D5E90112CF
S315080038C043F48053E360FFF779FF6B7B0BB110235A
S315080038D063616B7D1BB1A36843F48033A360AB7D42
S315080038E01BB1A36843F40043A360EB7D2A7E1B0744
S315080038F0120503F0E04302F4E0021343A3652B78B4
S31508003900636138BD00C00550016D0008034B5A6855
S31508003910D20702D5DA69002AF9D1704700800A5021
S31508003920054B9A689107FCD45A689207F9D4DA6964
S31508003930002AF6D1704700BF00800A5008B5FFF785
S31508003940E5FF0222014B1A6108BD00BF00800A503C
S3150800395008B5FFF7E5FF0122024B03F580514A60DF
S315080039601A6108BD00800A5008B5044B5968012938
S3150800397003D1FFF7E3FF024B596008BD00800A50E8
S3150800398000A00A5010B5064CFFF7CAFF6368012B62
S3150800399003D1FFF7E9FFFFF7C3FF0378E36010BD24
S315080039A000800A50A8B94A680B78B2B94A7843EA3F
S315080039B042038A6812B1127843EA82138A7843EA84
S315080039C08203CA6812B1127843EA4223054A93640D
S315080039D070477E21044802F060B9127843EAC203B0
S315080039E0E4E700BF00800A50556D000810B9044B83
S315080039F05964704740F21111024802F04EB900BFEF
S31508003A0000900A50556D000810B9044B5964704768
S31508003A1040F24D11024802F040B900BF00A00A501A
S31508003A20556D000810B9044B1964704740F28911A6
S31508003A30024802F032B900BF00A00A50556D0008CE
S31508003A4008B510B9044B186C08BD04484FF4E27168
S31508003A5002F023F90020F7E700800A50556D0008A8
S31508003A6008B520B949B101290AD0002008BD40F29D
S31508003A707321054802F011F9F7E7044BD86CF5E70E
S31508003A80024B186DF2E700BF556D000800800A501A
S31508003A9018B939B1012908D0704740F211310448E4
S31508003AA002F0FBB8034BDA647047024B1A6570479D
S31508003AB0556D000800800A5070B50D46E8B10368D8
S31508003AC013F4E07F03F03F06C3F3821210D0012AF5
S31508003AD013D10B4C9B0603D591210A4802F0DDF859
S31508003AE045B104F5805401230020B340236070BD1E
S31508003AF0054CEFE704F50054F5E70E20F7E700BF9D
S31508003B0068800050AF6C00086480005030B58BB0F8
S31508003B106D46774C0FCC0FC554F8043B68462B60AE
S31508003B204FF07E6393F89C306D46FF2B08BF2C231D
S31508003B308DF80130FEF74CFC3220FEF7ABFC0FCCBB
S31508003B400FC50FCC0FC594E8030085E80300694B41
S31508003B50D3F84C21110340F1AE80A3F5FE431C882F
S31508003B604FF6FF739C4208BF5F248DF81940FEF795
S31508003B7029FC044484F308045F488DF81840FCF7D0
S31508003B80B3FF6846FEF70CFB3220FEF789FC5B485C
S31508003B90FEF784FD5A48FEF70FFE5A4C01213620DF
S31508003BA0FEF796F80020FEF781FCFEF755FD236F19
S31508003BB0002023F0070343F003032367236F23F44E
S31508003BC0744343F48063236702F05AF94E4BD3F8E3
S31508003BD0FC20D20173D4D4F8803023F0030343F0D9
S31508003BE00103C4F88030D4F88030C4F88030454CDE
S31508003BF0D4F8203123F0070343F00203C4F8203138
S31508003C00D4F8283123F0070343F00203C4F8283117
S31508003C10D4F8803123F0030343F00103C4F880315C
S31508003C20D4F8403123F0030343F00203C4F84031CB
S31508003C30D4F8603123F0030343F00203C4F860317B
S31508003C40D4F8403223F0030343F00203C4F84032A9
S31508003C50D4F8003223F0070343F00203C4F8003215
S31508003C60D4F8083223F0070343F00203C4F80832F5
S31508003C70D4F8703223F0030343F00103C4F870321A
S31508003C80D4F8203223F0070343F00103C4F82032A6
S31508003C90FEF76EFA4FF0E0220020136963F0040382
S31508003CA01361D4F8603223F0070343F00103C4F824
S31508003CB060320BB030BDD3F85041E4B255E7D3F8C3
S31508003CC0FC2022F08072C3F8FC20D4F8802022F071
S31508003CD0030242F00102C4F88020D4F88020C4F818
S31508003CE08020D3F8FC2042F08072C3F8FC207EE7DF
S31508003CF0B46D00080080E00FC017530200B4C40476
S31508003D00C0EA21010080005000ED00E007B5094B2C
S31508003D1018689A889B7900906846ADF804208DF853
S31508003D200630FEF7D1FE0920FEF706FF002003B095
S31508003D305DF804FBF06D000813B50024064A6846D2
S31508003D40536F43F00103536700948DF80440FEF760
S31508003D50EFFD204602B010BD004000504C2810B5BB
S31508003D6004460DD801220A49630904F01F04A2403B
S31508003D70203341F82320BFF34F8FBFF36F8F10BD59
S31508003D8040F20911034801F088FF002CF7DBE9E748
S31508003D9000E100E03C6E00084C2810B5044608D83F
S31508003DA001236109074A04F01F04A34042F82130A1
S31508003DB010BD4FF48A71044801F06FFF002CF7DB41
S31508003DC0EEE700BF00E100E03C6E0008002808DBD3
S31508003DD001224309034900F01F008240603341F87D
S31508003DE02320704700E100E038B500F110035C2B92
S31508003DF004460D4604D94FF4E1710D4801F04DFF14
S31508003E001E2D04D940F2C311094801F046FF002CC3
S31508003E10ACBF04F16044074B4FEA0515EDB2ABBFE2
S31508003E2004F5614404F00F0484F800531D5538BDA9
S31508003E303C6E000814ED00E010B5044601F02EFFB4
S31508003E40024B1C6001F02EFF002010BD80120020DE
S31508003E5010B501F023FF034B1C6801F023FF204631
S31508003E6010BD00BF801200202DE9F0431D461368DF
S31508003E7095B01F68D37B8046894614460CAE23B39B
S31508003E80DFF828C2BCE80F000FC69CE80F0086E8DA
S31508003E900F0006AE18220021304602F042FAA36847
S31508003EA00E93237B012B13D0022B14D01BB1DB21DD
S31508003EB0784801F0F2FE0023ADF83E30637B032B11
S31508003EC01ED8DFE803F00B24211ADFF8E4C1D9E78E
S31508003ED04FF40073F0E74FF44073EDE70023ADF8B5
S31508003EE0403001238DF81E30A37B1396042B11D87E
S31508003EF0DFE803F01516161615004FF44053EEE7E3
S31508003F00ED21644801F0C9FE4FF48053E7E74FF40A
S31508003F100053E4E74FF480715E4801F0BEFE0023CB
S31508003F208DF81830E37B4A46C3F10203DBB2CDE9CC
S31508003F300333594B29460293584B404601930023B5
S31508003F400093574B00F0C2FA0646002840F09B80C3
S31508003F5023695448EB63237E85F84330E37D85F86F
S31508003F604230A37D85F84130637D85F84030A37ED5
S31508003F7085F84530637E85F84430237F85F84730D9
S31508003F80E37E85F846302368AB6301F0DBFF012347
S31508003F900422A17D607DFFF773FA0123217E0222A8
S31508003FA0E07DFFF76DFA85F84860206901F0CAFFE1
S31508003FB0E37B38460CA9002B69D0FFF757F895F82C
S31508003FC0483043F0040385F848301021227D364BEB
S31508003FD003EB4210C0F8941494F816C0617D25329C
S31508003FE041EA0C41C0F8AC14207EE17D03EB421394
S31508003FF041EA00415960A37B03F0FD03012B0BD175
S3150800400095F84830022243F0010385F84830A17E2E
S315080040100023607EFFF734FAA37B023B012B0BD803
S3150800402095F84830042243F0020385F84830217F8A
S315080040300023E07EFFF724FA95F84830DB0717D50A
S31508004040A17E627E237D42EA014241F29C415B01E8
S3150800405003F1A04303F570335A5041F2944202210A
S315080040609950217FE27E03F5A55342EA01421A6080
S31508004070042307F50052D36407F580520521384614
S315080040801365FEF7B9FD304615B0BDE8F083FFF7B6
S315080040901BF89AE7B86E00087D600008F56000080E
S315080040A021610008006E000800C00350246F000854
S315080040B0446F000810B50020144601F0B6FF022828
S315080040C004D018B1C321024801F0E7FD204610BD0F
S315080040D0646F0008034B022218680023806819469B
S315080040E000F0B4BFB4150020302238B5037A044670
S315080040F0534303F1A04303F58023DD6ED0E9032380
S3150800410013449D4201D8AA4204D94FF44171054887
S3150800411001F0C3FDD4E9030303449D4218BF2846B2
S3150800412038BD00BFD56F000830B51446054687B0C0
S315080041301046FFF7D9FF6369024683423CBFD4E9BC
S3150800414003315B181B1AABB1124904940391002181
S31508004150CDE90131012300932846D4E9001301F083
S31508004160DEFD20B14FF437710B4801F096FD0020B3
S3150800417007B030BD0122627694F82D20002AF6D0C9
S3150800418084F835301321E369204698472046636A48
S315080041909847ECE729410008D56F000870B5044632
S315080041A00568FFF755FE844202D10020FFF744FE5A
S315080041B095F93600FFF70AFE95F93600FFF7CEFDAA
S315080041C0287AFCF71FFF20B14FF4F371104801F06D
S315080041D064FD287AFCF77CFE20B14FF4F5710C4893
S315080041E001F05BFDFCF752FE38B10A4B984204D049
S315080041F04FF4F771064801F050FD00232846C4E93C
S315080042000033C4E90433A360AB6ABDE870401847BD
S31508004210D56F0008058000F02DE9F04788B0044600
S315080042200F461646984601F040FD8146002E00F0DE
S31508004230AD80237E03F0FF02002B00F0E0802046CD
S31508004240FFF752FF63698246984206D1637E23B917
S3150800425040F28B316B4801F020FD6569AA459DBF88
S31508004260D4E903329B185D1BAAEB0505B54228BFA6
S31508004270354601F01AFD94F82D308246002B40F0A1
S3150800428096802A463846616902F056F863692E46D2
S315080042902B4463612CE06069037803F0FD01112962
S315080042A040F08280216B884205D1A3F111014B426F
S315080042B04B4184F83430013E6369216B01328B42ED
S315080042C003F1010308BF236363619542E3D1D4E98F
S315080042D00323216B1344994208BF2263216B8A4248
S315080042E001D88B4204D84FF47071464801F0D5FCCA
S315080042F0D4E9032361691344994208BF626161697D
S315080043008A4201D88B4204D84FF474713D4801F0B3
S31508004310C4FC0023207A6376FCF734FE20B140F211
S315080043201D31384801F0B9FC2046FFF7DDFE636908
S3150800433083423FD10023E568237694F82D306561E2
S3150800434003B125632046636A98472F4B0494039369
S315080043500023029323692A46019301230093636885
S315080043602168207A01F0DBFC20B140F2393125487A
S3150800437001F093FC207AFCF725FE20B140F25D316E
S31508004380204801F08AFC504601F095FC4846C8F8DA
S31508004390006001F090FCD8F80030002B0CBF1B2001
S315080043A0002008B0BDE8F08707F8013B84E72E46F1
S315080043B000228AE70123207A23760DF11E01FCF7F5
S315080043C069FE20B14FF453710E4801F066FC9DF862
S315080043D01E30207A002BCDD00DF11F01FCF732FEDE
S315080043E020B140F25231074801F057FC9DF81F10E2
S315080043F0207A0029BED12246FFF796FEBAE716466E
S31508004400C4E700BFD56F0008294100082DE9F84325
S3150800441004460D4690F82C80DFF8AC908E18AE4214
S3150800442028D094F82D3083B101F03FFC237E07464F
S315080044301BBB226B63699A4204D040F205214846A9
S3150800444001F02BFC384601F036FC94F83430002B8A
S31508004450E5D0B8F1000F06D02B780A2B03D10D2131
S315080044602046E36998472046E36915F8011B9847F3
S315080044700028D4D00020BDE8F8832046FFF734FE94
S31508004480E1680138884238BF2069D4F830C03CBF9B
S3150800449000F1FF30401803469C450BD013F801295C
S315080044A0112A01D0132A07D1A2F111035A425A41FF
S315080044B084F834202063C5E7994282BF236903F153
S315080044C0FF335B18E8E700BFD56F0008F0B50C4668
S315080044D00646154687B03822002120461F4601F0B9
S315080044E020FF95E8030000232A692376EB6884E811
S315080044F00300C4E904232A7DE36084F82C20AA7DFE
S315080045002363012384F8343084F835300C9B84F80F
S315080045102D2023620D9BE76163620E9BA3622B7AB3
S3150800452084F836301C4B346073601C4BB3601C4BEC
S3150800453033611C4B73611C4BF360FCF7EFFC30B125
S315080045401A4B984203D01024204607B0F0BD00212C
S3150800455004F10800FCF76AFC0028F4D1144B049413
S31508004560CDE9020323690193012300936368E26896
S315080045702168207A01F0D3FB04460028E3D195F997
S315080045800800FFF723FC95F90800FFF705FC3046FD
S31508004590FFF752FCD8E700BF0D440008194200088F
S315080045A0D7610008DD6100089D410008038000F01E
S315080045B0294100080346054A0549106803448B4209
S315080045C08CBF4FF0FF301360704700BFA415002062
S315080045D00000042030B50E4C416123688BB9206079
S315080045E083600DE0891A9A681D4641616AB11346CF
S315080045F05A698A42F6D935B1A860521A83605A6157
S3150800460030BD0025F4E72060F7E798608260F7E799
S315080046108C12002038B500F0A7F90025084B094C84
S315080046201A682368C31A2AB123B15169994203D378
S31508004630C91A5161206038BD55615B1A9268F2E764
S315080046408C1200208812002038B5134D2B685B6940
S3150800465093B1124A022014681C4401F0C6FD204694
S3150800466000F08AF900230E492A680B70D088800763
S3150800467009D501230B7038BD022001F0B6FD0220D2
S3150800468000F0C8F9EEE79268002AF4D050690344AE
S31508004690012BEBD9EFE700BF8C120020881200200F
S315080046A06615002000220C490B687BB183420AD1AB
S315080046B083687AB1936083681BB15A6941690A4471
S315080046C05A61002070471A469B68EEE70028EFD02B
S315080046D0022070470B60EEE78C12002070B501F0DF
S315080046E0E4FA144E05463478FCB9134B1C60134B98
S315080046F01C60134B1C8000F003F9012001F075FDC6
S3150800470000F090F90F4B0246186020B9284601F0D0
S31508004710D2FA232070BD234640F2E7310A4800F05A
S31508004720B9F90A4B186001233370284601F0C3FA19
S315080047300020EFE7671500208C1200208812002061
S31508004740DC1300209012002018FCFFFF84120020C2
S3150800475070B5044640B301F0A1FA144E0546FFF7BA
S3150800476059FF3068A04209D02046FFF79BFF044650
S31508004770B0B1284601F096FA204670BDFFF792FFC1
S3150800478004460028F5D133683BB9022000F02CF91D
S31508004790284601F087FA0024EEE7FFF755FFF7E70A
S315080047A03368002BF4D1F0E72224E5E78C120020C9
S315080047B0C2072DE9F04704460BD54D4A1388013345
S315080047C09BB21380FFF726FF4A4B1B680BB1FFF716
S315080047D03BFFA30740F18A8001F067FA4FF0000912
S315080047E005464E46FFF716FFC846424F3C680CB1D1
S315080047F063698BB10022404B012E1A7003D119F060
S31508004800020F18BF1E70002C6CD0FFF71DFF28463C
S31508004810BDE8F04701F04FBA23465A693AB91A7902
S315080048202179914288BF1C469B68002BF5D1284602
S3150800483001F041FA2569DDB100F096F8A269A0EB0E
S3150800484002094FEAE9734D4578EB030311DA236948
S315080048501344A361E368B4F80690013613B1204601
S315080048602168984701F021FA0546FFF7D3FEBDE710
S31508004870A94601F01AFA82462046FFF713FF50466A
S3150800488001F019FA2369002BE4D0B5EB09054FEAC4
S31508004890E97363EB4303002B04DA40F234511748FB
S315080048A001F0FBF9A38B33B1E28B13449BB2B3F54A
S315080048B07A7F0FD2E38301F0F8F98146294620462C
S315080048C0FFF788FEA369226948461344A36101F0ED
S315080048D0F2F9BFE7A3F57A73E383A369013D013BC8
S315080048E0A361E8E7022000F07FF890E7BDE8F087CB
S315080048F0DC1300208C120020651500203C7000088F
S3150800490010B50123002486B01548ADF80830CDE966
S3150800491003448DF804408DF80A40059401F012FB13
S3150800492001A8FFF72FF8204602A98DF80840FFF7DF
S3150800493039F820460F21FFF767F80F212046FFF7C1
S3150800494071F8FFF705F8FEF7E1FF064B43209C6177
S31508004950FFF73CFA4320FFF71FFA06B010BD00BF69
S31508004960FC6D000800800A5008B5FEF7CFFF014B22
S31508004970986908BD00800A50F8B5044601F08EF91A
S315080049800746FEF7C3FF164B9D6901F02AFC06464B
S315080049900020FFF755F8830704D4731B032B01D8AF
S315080049A0AE420FD10021631B022B98BFEC1C0846B0
S315080049B0B4F1FF3F2CBF2246621EFFF769F80220BA
S315080049C001F013FC384601F06DF9064A137833B145
S315080049D003498B6C43F001038B6400231370F8BD05
S315080049E000800A500A160020830700F0010109D545
S315080049F00122064B41F002011A70054A936C23F016
S31508004A00010393640020FEF7FFBF00BF0A160020CB
S31508004A1000800A50830742BF0222014B1A6470477E
S31508004A2000900A5007B5044B01A9187901F085FAD8
S31508004A30019803B05DF804FB186E000810B504462B
S31508004A40FCF736F84FF47A729042B0FBF2F105D2D1
S31508004A503621BDE810400C4801F01FB90B4BB3FBDB
S31508004A60F1F30B49884201D93C21F2E702FB04F035
S31508004A70B0FBF3F0022806D9BDE810400323B0FBCB
S31508004A80F3F0FBF775BB10BDA270000840420F009B
S31508004A90E7CD9A3B53B94AB9002908BF00281CBF7D
S31508004AA04FF0FF314FF0FF3000F082B9ADF1080C3E
S31508004AB06DE904CE00F006F8DDF804E0DDE902232E
S31508004AC004B070472DE9F04F099D0C46002B4DD1D7
S31508004AD08A420F4684469646B2FA82F360D94BB1AB
S31508004AE002FA03FEC3F120029F4000FA03FC20FAF3
S31508004AF002F217434FEA1E461FFA8EF44FEA1C428B
S31508004B00B7FBF6F106FB117701FB04F042EA074210
S31508004B10904208D91EEB020201F1FF3702D29042F9
S31508004B2000F231813946121A1FFA8CFCB2FBF6F0F4
S31508004B3006FB102200FB04F44CEA024C644508D933
S31508004B401EEB0C0C00F1FF3202D2644500F21E8106
S31508004B50104640EA0140ACEB040C002125B12CFAC2
S31508004B6003F30022C5E90032BDE8F08F8B4205D970
S31508004B700DB1C5E9000100210846F5E7B3FA83F14E
S31508004B8000294DD1A342C0F0F380904280F0F08016
S31508004B90064623460846002DE6D0C5E90063E3E746
S31508004BA0002B40F0A3808A1A4FEA1E471FFA8EF69A
S31508004BB00121B2FBF7F407FB14204FEA1C4242EA34
S31508004BC0004206FB04F090420FD91EEB020204F1E4
S31508004BD0FF382CBF4FF001094FF00009904203D966
S31508004BE0B9F1000F00F0CC804446121A1FFA8CFC6B
S31508004BF0B2FBF7F007FB102200FB06F64CEA024C64
S31508004C00664508D91EEB0C0C00F1FF3202D2664548
S31508004C1000F2B3801046ACEB060C40EA04409DE770
S31508004C20C1F120068B4004FA01FE22FA06F720FAA3
S31508004C3006FCF4408A401F434EEA0C0300FA01FEC4
S31508004C404FEA17484FEA13491FFA87FCB4FBF8F0F6
S31508004C5008FB104449EA044400FB0CF9A1450ED9A7
S31508004C603C1900F1FF3A2CBF4FF0010B4FF0000B37
S31508004C70A14503D9BBF1000F00F08B805046A4EB89
S31508004C8009041FFA83F9B4FBF8F308FB134403FB82
S31508004C900CFC49EA0444A44506D93C1903F1FF383B
S31508004CA001D2A4457BD8434643EA0040A4EB0C0452
S31508004CB0A0FB02984445CC46434602D306D1CE45CE
S31508004CC004D20138B9EB020C68EB0703002D6CD04F
S31508004CD0BEEB0C0264EB030422FA01F304FA06F6AF
S31508004CE0CC4000211E43C5E900643DE702FA03FEF5
S31508004CF0C3F1200104FA03F200FA03FCCC404FEAA0
S31508004D001E4720FA01F11FFA8EF6B4FBF7F00A43A4
S31508004D1007FB1044110C41EA044100FB06F48C42DF
S31508004D200ED91EEB010100F1FF382CBF4FF0010927
S31508004D304FF000098C4202D9B9F1000F2CD0404639
S31508004D40091B92B2B1FBF7F407FB141142EA0142C0
S31508004D5004FB06F1914207D91EEB020204F1FF3863
S31508004D6001D291421ED84446521A44EA004120E72D
S31508004D70861A64EB030301200DE7F44402384AE778
S31508004D80023C724431E702397244CCE6F4440238F4
S31508004D90DFE602383C4472E702387144D0E7023B4A
S31508004DA03C4481E7023C7244DEE72946DCE600BF64
S31508004DB0704700BF08B5064B044613B10021AFF390
S31508004DC00080044B1B6803B19847204601F0EBF9B5
S31508004DD000000000CC1300202DE9F04386460D465E
S31508004DE0354E284615F8014B375D17F00807F8D1F8
S31508004DF02D2C26D12C780127851C3BBB302C32D094
S31508004E000A234FF0FF380026B8FBF3F803FB08F92E
S31508004E1030466FEA0909A4F1300CBCF1090F29D80C
S31508004E206446A34237DDB6F1FF3F07D080452FD34E
S31508004E3001D1A1452CDB00FB0340012615F8014BE7
S31508004E40E9E72B2C04BF2C78851CD6E7102BD8D184
S31508004E50302CD6D1287800F0DF005828D1D16C78CC
S31508004E6010230235CDE72B7803F0DF03582BF6D055
S31508004E700823C6E7A4F1410CBCF1190F01D8373C49
S31508004E80CFE7A4F1610CBCF1190F04D8573CC8E769
S31508004E904FF0FF36D2E7731C06D122233046CEF8F0
S31508004EA0003032B9BDE8F08307B14042002AF9D094
S31508004EB006B1691E1160F5E70171000813460A4636
S31508004EC0014602480068FFF787BF00BFB4150020F7
S31508004ED0002310B504468360818119464366C28162
S31508004EE008228361C0E90033C0E904335C3001F06D
S31508004EF018FA0D4B246263620C4BA3620C4BE362F7
S31508004F000C4B23630C4B9C4206D003F16802944277
S31508004F1002D0D0339C4205D104F15800BDE81040B8
S31508004F2001F007BA10BD00BF9D620008BF62000805
S31508004F30F76200081B63000894120020024A03491E
S31508004F40034801F08DB900BFA81500208F65000839
S31508004F50B815002041680C4B994210B5044601D09B
S31508004F6001F015FBA168094B994202D0204601F0D1
S31508004F700EFBE168064B994204D02046BDE8104076
S31508004F8001F005BB10BD00BF94120020FC120020E2
S31508004F906413002010B50B4B04210B4C0B4A20461A
S31508004FA01A600022FFF794FF04F168000122092124
S31508004FB0FFF78EFF04F1D00002221221BDE810404F
S31508004FC0FFF786BFCC130020941200203D4F00083F
S31508004FD0014801F0AFB900BF69150020014801F08A
S31508004FE0AAB900BF6915002010B50446FFF7F0FFFF
S31508004FF0236A1BB1BDE81040FFF7F0BF044B2362DC
S31508005000044B1B68002BF5D1FFF7C4FFF2E700BF7E
S31508005010554F0008CC130020024B1868416801F070
S31508005020DEBA00BFB41500200FB407B5064904ABB5
S31508005030086853F8042B8168019300F01DFA03B041
S315080050405DF804EB04B07047B41500202DE9F7436A
S315080050501D46574B04460E461F68904627B13B6AC5
S3150800506013B93846FFF7C0FFB8F1020F06D0B8F1FA
S31508005070010F00F29980002DC0F29680636ED90761
S3150800508005D4A3899A0502D4A06D01F053F92146E7
S31508005090384601F07CFA616B41B104F14403994248
S315080050A002D0384600F0F0F8002363630023A361BA
S315080050B06360A3891B0603D52169384600F0E4F826
S315080050C0A389B8F1020F23F44A6323F00303A381EB
S315080050D060D001AB6A462146384601F0ABFAA3898F
S315080050E01843A0812DBB009D284600F017F90646F7
S315080050F0002851D1DDF80090A9453FD14FF0FF3582
S31508005100B4F90C3043F00202A2810022A26004F135
S3150800511047022260226101226261626ED60704D4C8
S31508005120980502D4A06D01F006F9284603B0BDE83B
S31508005130F083002ED8D03B6A13B93846FFF754FFE0
S31508005140B8F1010F266002BFA38943F00103A381CA
S31508005150B4F90C3013F00802C4E904651ED0D90767
S3150800516045BF00226D42A560A26048BFA561626E78
S31508005170D20701D49B0513D50025D6E7484600F08B
S31508005180CDF806460028B9D0A3894D4643F08003DA
S31508005190A381D0E70025B3E7A946F5E7A260E6E7CD
S315080051A0A06D01F0C8F8E7E74FF0FF35BDE700BF8F
S315080051B0B415002038B50023054D044608462B6073
S315080051C000F0EFFF431C02D12B6803B1236038BD02
S315080051D0D013002038B50446064D0846114600226D
S315080051E02A601A4600F0E7FF431C02D12B6803B178
S315080051F0236038BDD013002038B50446064D08464E
S31508005200114600222A601A4600F0D7FF431C02D135
S315080052102B6803B1236038BDD013002038B5044687
S31508005220064D0846114600222A601A46FEF742FF36
S31508005230431C02D12B6803B1236038BDD01300206C
S3150800524070B50D4D00260D4C641BA410A64209D15D
S315080052500B4D00260B4C01F0B3FA641BA410A642B2
S3150800526005D170BD55F8043B01369847EEE755F869
S31508005270043B01369847F2E70C1600200C1600206E
S315080052800C1600201016002038B50546002941D016
S3150800529051F8043C0C1F002BB8BFE41800F0E0F8E6
S315080052A01D4A136833B9636014602846BDE8384060
S315080052B000F0DCB8A34208D9206821188B4201BF48
S315080052C019685B6809182160EDE71A465B680BB137
S315080052D0A342FAD911685018A0420BD1206801449C
S315080052E0501811608342E0D118685B68084453601F
S315080052F01060DAE702D90C232B60D6E7206821185C
S315080053008B4202BF19685B680918636008BF216091
S315080053105460CAE738BD00BFD8130020024B0146C7
S31508005320186800F025B800BFB415002070B50F4EF8
S315080053300C460546316811B900F05AFB3060214623
S31508005340284600F055FB431C03D14FF0FF34204696
S3150800535070BDC41C24F00304A042F8D0211A2846C4
S3150800536000F046FB0130F2D1EFE700BFD41300206E
S315080053702DE9F041CD1C064625F0030508350C2D10
S3150800538038BF0C25002D01DBA94204D90C23336054
S315080053900020BDE8F081314F00F062F83B681C46FA
S315080053A044BB29463046FFF7C1FF431C044650D18B
S315080053B03C682146002941D1002C44D02368304658
S315080053C004EB030800F014FB80453CD12168304605
S315080053D06D1A2946FFF7AAFF013034D023682B44FB
S315080053E023603B68002B36D05A68A24229D1002296
S315080053F05A600EE02268521B1DD40B2A16D9611971
S31508005400A342256018BF5960636808BF39606251B6
S315080054104B60304600F02AF804F10B00231D20F0FB
S315080054200700C21AB5D01B1AA350B2E7A342626896
S31508005430DED13A60EDE723466468B1E70C46496871
S31508005440B8E71346CEE70C233046336000F00EF873
S315080054509EE70560DDE75B60FFDE00BFD81300202E
S31508005460014800F067BF00BF68150020014800F03A
S3150800547062BF00BF681500202DE9F04F0D469DB0AC
S3150800548014469846064618B1036A0BB9FFF7ACFDF1
S315080054906B6ED90705D4AB899A0502D4A86D00F0BE
S315080054A049FFAB891B0701D52B699BB929463046AD
S315080054B000F026FA70B16B6EDC0704D54FF0FF30AA
S315080054C01DB0BDE8F08FAB899805F7D4A86D00F03C
S315080054D032FFF3E70023CDF80C804FF00109DFF81F
S315080054E0B481099320238DF8293030238DF82A308A
S315080054F023469A4613F8012B0AB1252AF9D1BAEBA5
